:020000040800F2
:10000000B85300204D02000891570008A14B00088A
:100010008D57000825080008C97600085F0200080F
:10002000000000000000000000000000A1660008C1
:100030002908000800000000A1570008816C000892
:1000400069020008690200086902000869020008E4
:1000500069020008690200086902000869020008D4
:1000600069020008690200086902000869020008C4
:1000700069020008690200086902000869020008B4
:1000800069020008690200086902000869020008A4
:100090006902000869020008690200086902000894
:1000A0006902000869020008690200086902000884
:1000B00000000000690200086902000869020008E7
:1000C0006902000869020008690200086902000864
:1000D0006902000869020008690200086902000854
:1000E0006902000869020008690200086902000844
:1000F0006902000869020008690200086902000834
:1001000069020008ED6C0008690200086902000835
:100110006902000869020008690200086902000813
:100120006902000869020008690200086902000803
:1001300069020008690200086902000869020008F3
:1001400069020008690200086902000869020008E3
:1001500069020008690200086902000869020008D3
:1001600069020008690200086902000869020008C3
:1001700069020008690200086902000869020008B3
:1001800069020008690200086902000869020008A3
:100190006902000869020008690200086902000893
:1001A0006902000869020008690200086902000883
:1001B00069020008000000006902000869020008E6
:1001C00069020008000000006902000869020008D6
:1001D0006902000869020008690200086902000853
:1001E0006902000869020008690200086902000843
:1001F0000000000000000000690200086902000819
:100200006902000869020008690200086902000822
:100210006902000869020008690200086902000812
:100220006902000869020008690200086902000802
:100230006902000869020008DFF80CD000F070FACB
:100240000048004725770008B8530020074880473A
:1002500007480047FEE7FEE7FEE7FEE7FEE7FEE7AA
:10026000FEE7FEE7FEE7FEE7FEE70000A16C000800
:10027000390200082DE9F05F0546002092469B46B2
:1002800088460646814640241BE0284641464746AC
:10029000224600F07CF853465A46C01A914110D3CA
:1002A00011461846224600F063F82D1A67EB010844
:1002B0004F4622460120002100F05AF817EB0009B2
:1002C0004E41201EA4F10104DFDC484631462A4697
:1002D0004346BDE8F09F40EA01039B0703D009E0D5
:1002E00008C9121F08C0042AFAD203E011F8013B22
:1002F00000F8013B521EF9D27047D2B201E000F87B
:10030000012B491EFBD270470022F6E710B51346B9
:100310000A4604461946FFF7F0FF204610BD00F0DC
:10032000004230F000400AD0C10D01F56071C0F309
:10033000160042EA0151C2084007114370470020ED
:100340000146704730B50B460146002020220124AB
:1003500009E021FA02F59D4205D303FA02F5491B93
:1003600004FA02F52844151EA2F10102F1DC30BDA9
:10037000202A04DB203A00FA02F100207047914065
:10038000C2F1200320FA03F3194390407047202A5A
:1003900004DB203A21FA02F00021704721FA02F32F
:1003A000D040C2F1200291400843194670472DE920
:1003B000FE4F804681EA0300C00F0C46009021F0FA
:1003C000004123F00045B8EB0200A94105D24046A8
:1003D000214690461C460B46024623F0004010433F
:1003E00047D0270DC7F30A00C3F30A510290401A01
:1003F000019040286BDAC3F3130040F4801B00988F
:10040000924620B10023D2EB030A63EB0B0B019859
:100410005946C0F140025046FFF7AAFF06460D4676
:1004200050465946019A00F08DF910EB08006141E1
:10043000002487EA115284EAE7731A4340D0009AF5
:1004400062B3019A012A4FEA075215DC001B61EBE7
:1004500002014FF0004202EA0752CDE90042001CBF
:1004600041F5801132462B4600F08DF903B0BDE80E
:10047000F08F40462146F9E7001B61EB0201001CAA
:1004800041F5801300185B412018A2F5001747EBD7
:10049000030140EAD570B6196D4111E06D084FEACD
:1004A000360645EAC0754FEA0752001B61EB0201B0
:1004B000001C41F5801149084FEA300000195141F4
:1004C00032462B4603B0BDE8F04F00F04DB900981E
:1004D000012240000023D0EB020263EBE07300989E
:1004E00021464FEAE074B8EB000061EB0401E9E754
:1004F00083F000435BE781F0004158E72DE9FE4FB0
:1005000081EA030404F0004421F0004100944FF01C
:10051000000B23F0004350EA01045ED052EA0304CA
:100520005BD0C3F30A54C1F30A552C44A4F2F3344C
:100530000194A0FB0254C1F3130141F48011C3F3F1
:10054000130343F4801301FB024400FB034E840AAF
:10055000970A44EA815447EA8357A4FB0768029547
:100560008D0A05FB07854FEA932C04FB0C542705E5
:10057000029D4FEA065847EA1637B5EB08056EEBC1
:10058000070C870E920E47EA811742EA8312A7FBF7
:100590000201B6EB0B0164EB00042B0D43EA0C33B4
:1005A0005E1844EB1C50DA465146E7FB0201C5F3E6
:1005B00013044FEA0B3343EA14534FEA0432019C0D
:1005C00043EA0603A4F10C040294009CCDE900B4B4
:1005D00000F0D9F803B0BDE8F08F00200146F9E73C
:1005E0002DE9F04D81EA030404F0004B21F00045B1
:1005F00014464FF0000A23F0004150EA050220D0D3
:1006000054EA01021DD0C5F30A570246C5F313038D
:10061000C1F31300C1F30A5640F4801543F480136C
:10062000A7EB0608101BD64608F2FD3873EB050051
:1006300002D308F1010801E092185B41B8F1000F04
:1006400003DA00200146BDE8F08D00204FF4801150
:10065000064684460EE0171B73EB050705D3121BF5
:1006600063EB050306434CEA010C49084FEA3000EE
:1006700092185B4150EA0107EDD152EA030012D013
:1006800082EA040083EA0501084305D0101BAB4150
:1006900006D20122002306E000224FF0004302E0D0
:1006A0006FF0010253101AEB06004CEB085110EBEF
:1006B0000A0041EB0B01BDE8F04D00F055B8C1F365
:1006C0000A52C1F3130140F2FF3341F480119A4200
:1006D00002DA00200146704740F233439A42A2F208
:1006E000334202DC5242FFF752BEFFF741BE000028
:1006F00030B5041E71F1000404DB4FF000444042A9
:1007000064EB0101141E73F1000405DB1C464FF07D
:100710000043524263EB0403994208BF904230BD4C
:10072000064C074D06E0E06840F0010394E807003E
:1007300098471034AC42F6D3FFF782FD10B300089F
:1007400030B30008202A06DBCB17203A41FA02F02A
:1007500043EAE07306E041FA02F3D040C2F120021E
:10076000914008431946704710B5141E73F10004F8
:1007700008DA401C41F1000192185B411A4301D193
:1007800020F0010010BD2DE9F04D92469B4611B1BD
:10079000B1FA81F202E0B0FA80F220329046FFF71F
:1007A000E7FD04460F4640EA0A0041EA0B015346C2
:1007B0005A46084313D0114653EA010019D0C8F134
:1007C00040025046FFF7E3FD05460E4650465946A7
:1007D0004246FFF7CDFD084305D0012004E0204646
:1007E0003946BDE8F08D0020054346EAE0762C430B
:1007F00037430A986305E40AA0EB08000022FD0ACB
:1008000044EA47540A3002D500200146E9E70105D1
:1008100010196941DDE9084500196941BDE8F04D4D
:10082000A2E70000FEE7000070470000EFF3108031
:1008300072B600BFFEE700002DE9F04786B04BF22C
:10084000572040F20044C0F60000C4F202240AF02F
:100850001FF820464FF48051012200F03FFC012098
:1008600000F00CFB20464FF4805100F029FC0146BB
:100870004BF20600C0F6000009F090FB20464FF452
:10088000804100F01DFC01464AF6CA70C0F6000027
:1008900009F084FB21684BF2FA00C0F6000009F071
:1008A0007DFB616A4BF23600C0F6000009F076FB72
:1008B000E1684BF2D300C0F6000009F06FFB21693C
:1008C000E7A009F06BFB40F2F015C2F2000595F8C5
:1008D0008910D5F88C204BF22110C0F6000009F0E9
:1008E0005DFB286801688268C368E7A009F056FBD1
:1008F000F4A009F0CDFF0A204FF00A0800F0BEFA7C
:100900004FF08F0A002720464FF480510022ADF8A7
:100910000CA0ADF80A7000F0E1FB03A90DF10A028A
:1009200028460223CDF8008003F0B0FB064620469F
:100930004FF48051012200F0D1FB9DF80B504BF297
:100940008F00002E18BF3D464FF03209C0F6000060
:10095000012132462B46CDF8009009F01FFB002EF6
:1009600008BF322D6FD0052000F088FA20464FF4E2
:1009700080510022ADF80CA0ADF80A7000F0AEFB7B
:1009800040F2F01003A9C2F200000DF10A020223A6
:10099000CDF8008003F07AFB064620464FF48051E4
:1009A000012200F09BFB9DF80B504BF28F00002EB4
:1009B00018BF3D46C0F60000022132462B46CDF856
:1009C000009009F0EBFA002E08BF322D3BD0052035
:1009D00000F054FA8F20ADF80C00002720464FF4A9
:1009E00080510022ADF80A7000F078FB40F2F01060
:1009F0000A2603A9C2F200000DF10A0202230096A2
:100A000003F044FB064620464FF48051012200F0DB
:100A100065FB9DF80B504BF28F00002E18BF3D4632
:100A20003227C0F60000032132462B46009709F01A
:100A3000B5FA002E08BF322D05D0052000F01EFAB1
:100A4000322D40F08B804BF26B00C0F6000032215B
:100A500009F0A4FA48F22100ADF80E0020464FF448
:100A60008051002200F03AFB40F2F010C2F2000088
:100A70000DF10E0102220A2303F01EF9054620465D
:100A80004FF48051012200F029FB5DB14BF2A81018
:100A90004FF0FF34C0F6000009F0FAFE204606B021
:100AA000BDE8F0870A2000F0E9F94BF23E20C0F6DD
:100AB000000009F0EDFE42F62070ADF80E00204671
:100AC0004FF48051002200F009FB40F2F010C2F216
:100AD00000000DF10E0102220A2303F0EDF8054695
:100AE00020464FF48051012200F0F8FA65B14BF234
:100AF000CB104FF0FF34C0F6000009F0C9FE2046CD
:100B000006B0BDE8F08700BF2320ADF80E002046F8
:100B10004FF4805100224FF0000800F0DFFA40F25D
:100B2000F010C2F200000DF10E0102220A230A2683
:100B300003F0C2F8054620464FF48051012200F030
:100B4000CDFA1DB34BF2F1104FF0FF34C0F60000A8
:100B500009F09EFE204606B0BDE8F0874BF28710F4
:100B6000C0F6000009F094FE4BF2AD20C0F6000084
:100B700009F08EFE4BF2E5204FF0FF34C0F6000086
:100B800009F086FE204606B0BDE8F087A020ADF84B
:100B9000120020464FF480510022ADF8108000F082
:100BA0009DFA40F2F019C2F200090DF1120104AAF7
:100BB00048460223009603F069FA074620464FF4A0
:100BC0008051012200F08AFA9DF81150A320002FD5
:100BD00018BF4546ADF8160020464FF4805100225C
:100BE000ADF8148000F07AFA0DF1160105AA484616
:100BF0000223009603F04AFA064620464FF480513D
:100C0000012200F06BFA9DF81500002E18BF404637
:100C1000C2B24AF67D70C0F60000294609F0BEF95E
:100C20002F2D11D14BF27520C0F6000009F030FED7
:100C30004BF250100024C0F6000009F029FE2046B7
:100C400006B0BDE8F08700BF4BF217204FF0FF342D
:100C5000C0F6000009F01CFE204606B0BDE8F08793
:100C60005B48334C4953313030444C5D2047504948
:100C70004F422D3E494452202020203D20307825EF
:100C800030386C580D0A00005B48334C4953313002
:100C900030444C5D2053504932204352313D30782E
:100CA0002530386C5820434647313D307825303860
:100CB0006C5820434647323D30782530386C580D0B
:100CC0000A0000005B48334C4953313030444C5DDE
:100CD000203D3D3D204857204449414720454E4452
:100CE000203D3D3D0D0A0D002DE9F04182B0002868
:100CF00000F097800446A72040F20045ADF80600BA
:100D00000020C4F20225ADF8040028464FF48051BB
:100D1000002200F0E3F940F2F0100A270DF106017D
:100D2000C2F2000001AA0223009703F0AFF90646C1
:100D300028464FF48051012200F0D0F9002E70D1E6
:100D40009DF8050000075EBF6FF0010002B0BDE82E
:100D5000F081A920ADF80600002728464FF4805105
:100D60000022ADF8047000F0B9F940F2F0104FF035
:100D70000A080DF10601C2F2000001AA0223CDF813
:100D8000008003F083F9064628464FF48051012283
:100D900000F0A4F9002E44D19DF805004FF48051D5
:100DA0002070AB20ADF8060028460022ADF8047094
:100DB00000F094F940F2F0100DF10601C2F20000CB
:100DC00001AA0223CDF8008003F060F90646284608
:100DD0004FF48051012200F081F916BB9DF8050007
:100DE0004FF480516070AD20ADF806000020ADF8E2
:100DF00004002846002200F071F940F2F0100A27A2
:100E00000DF10601C2F2000001AA0223009703F0CF
:100E10003DF9064628464FF48051012200F05EF964
:100E200026B14FF0FF3002B0BDE8F08194F9001018
:100E30009DF9050000EE101A94F9011003EE100A56
:100E400002EE101AB8EEC00A9FED0B1AB8EEC22AD5
:100E5000B8EEC33A20EE010A22EE012A23EE011A6F
:100E6000A07084ED010A84ED022A84ED031A0020AB
:100E700002B0BDE8F08100BF00004344B0B50446B5
:100E800000F032F9054640F20400C2F2000000789A
:100E9000611C18BF044400BF00F026F9401BA042AB
:100EA000FAD3B0BD2DE9F04F81B00D68002D00F0F0
:100EB0000381804647F67F70C0F22F0000EA982039
:100EC0000027009000234FF0010E4FF0030AC4F2F8
:100ED000026740460BE000BF4FF0030A0027C4F250
:100EE00002670D68013335FA03F200F0E5800EFA6F
:100EF00003F415EA0409F4D0B84525D0D1F804C0AC
:100F00004CF01004122C55D16FF0030202EA530783
:100F10001C2202EA830647440F223D6A02FA06F4C5
:100F20000A69A54302F00F02B2402A433A620268FE
:100F30005C00D1F804C00AFA04F5AA430CF00305DA
:100F400005FA04F422433FE038684AF624124D685B
:100F5000C0F60002A04302EBC30405F001059D406A
:100F6000D4F804B0054352F833006FF0030202EAEC
:100F70005B041C223D60051902EA8B042F6A0F22D4
:100F800002FA04F60B22B74302FA04F637432F6243
:100F900007684FEA4B060AFA06F50222AF4302FA47
:100FA00006F637430760D1F804C0BCF1120F10D920
:100FB00038E000BF02685C000AFA04F5AA430CF0AE
:100FC000030505FA04F422439B460260BCF1120FAC
:100FD00028D80EFA0CF212F0061F1FD04FEA4B056C
:100FE0000324826804FA05FACC6822EA0A02AC40BB
:100FF0002243826042680EFA0BF4A2434FEA1C14AB
:1010000004FA0BF42243BCF1030F42603FF464AFD7
:101010006FEA0A044FF0030A09E000BFBCF1030FB6
:101020003FF45CAF4FEA4B050AFA05F2D443C268BD
:101030008E68224006FA05F422435FEACC07C260BC
:101040007FF54CAF42F2000423F00302C4F20264C5
:101050001827224407EAC307166E0F25BD40AE438A
:10106000009D05FA07F73743176622684F6842EA82
:101070000906FD0258BF22EA090626606268BD0221
:1010800042EA090658BF22EA09066660D4F88420BD
:10109000BD0342EA090658BF22EA0906C4F8846083
:1010A000D4F88020FF0342EA090658BF22EA090665
:1010B000C4F8806012E700BF01B0BDE8F08F000007
:1010C0000069084018BF012070470000426902EA29
:1010D0000103914341EA0341816170471823002ACB
:1010E00008BF2823C150704744F6B000C2F2000088
:1010F00000687047B0B540F20045C4F20305022015
:10110000E860286820F001002860FFF7EDFF2968FB
:10111000C90701D10020B0BD044607E02868C00718
:101120001CBF0320B0BD2868C007F3D0FFF7DCFF69
:10113000001B0228F2D2F6E770B540F20042C4F27A
:1011400003021368DB071BD1203252F820301B0446
:1011500016D4D1E90236D1E900EC5D4205EA5E54CD
:101160002D04E4B244EA432305EA5C1509693343DC
:101170002B43194341F4004142F82010002070BD78
:10118000012070BD40F2040044F6B001C2F200003C
:10119000C2F2000100780A6810440860704700003D
:1011A00080B542F20000C4F20200016841F480718F
:1011B0000160032000F0C4F801F070FE40F6204109
:1011C000C4F2026109684AF60C1201F00F01C0F680
:1011D0000002515CC84040F21401C2F200010860F4
:1011E0000F2000F009F800281CBF012080BD00F08E
:1011F00055F8002080BD0000B0B588B040F69C4195
:10120000C4F202610A68044642F010020A600968EA
:1012100002A801F010010291029901A901F0A2FDBA
:1012200001F0DCFD4DF68361C4F21B31A0FB01012E
:101230004FF0FF3000EB914140F2802041F200037B
:10124000C2F2000040F2E732C4F200030025C0E918
:101250000031C0E90252056103F036F90546B0B924
:1012600040F28020C2F2000003F062F9054670B936
:101270000F2C0BD8312021460022002500F034F835
:1012800040F20800C2F20000046000E001253120B5
:1012900000F01AF8284608B0B0BD000081B040F652
:1012A0009440C4F202600168002241F00401016030
:1012B00000680F2100F00400009000986FF001001A
:1012C00001B000F011B80000002848BF704700F0DE
:1012D0001F01012202FA01F14EF200124009CEF282
:1012E000000242F82010704710B54EF60C5CCEF2AA
:1012F000000CDCF80030C3F3022E8EF00704042C3F
:1013000028BF0424BEF103034FF0FF3E38BF002383
:101310000EFA04F4A14399400EFA03F39A4300F045
:101320000F03043B1143634409010C3300F1604295
:10133000B0F1FF3FC8BF02F56443197010BD000053
:101340004EF60C51CEF200010A684FF6FF031A4028
:1013500060F30A2242F0806040F0FD700860704740
:1013600080B540F60C0CC4F2026CDCF8301001F4CD
:10137000403181420CD1B0F1011FC0F07F80DCF818
:10138000000040F48020CCF80000002080BD00BFA9
:10139000DCF80010B0F5803F21F4E02141EA0001C3
:1013A00040F2140088BF41F48021CCF80010C2F252
:1013B0000000006841F25971CDF2B711A0FB0101A4
:1013C0004FEA913E734600BFDCF80010B3F1FF32E4
:1013D00018BF0122581C22D011F400401FD1DCF8A4
:1013E0000010002B1A4618BF012218D011F400403B
:1013F00015D1DCF800105A1E18BF0122012B0ED0A7
:1014000011F400400BD1DCF800109A1E18BF012225
:10141000022B04D011F40040A3F10403D4D0A2B3F2
:10142000DCF830101EF1010224D011F4004021D16B
:10143000DCF83010BEF1000F1DD011F400401AD1BD
:10144000DCF83010BEF1010F1AD011F4004017D1B2
:10145000DCF83010BEF1020FAEF1040203D011F43B
:1014600000409646DCD002F1020EBEF1000F05D11D
:101470000BE000BF9646BEF1000F06D0002080BDF5
:10148000AEF1010EBEF1000FF8D1032080BD0000C7
:1014900040F62C00C4F20260016841F001010160D5
:1014A0007047000040F63C00C4F20260006800F49F
:1014B00040307047B0B540F6284EC4F2026EDEF8F8
:1014C0000C50DEF80030DEF80010DEF80020DEF808
:1014D0001040C2F30012C4F3CC04C1F3032104FB97
:1014E00002F203F0030300EE102A6FF35F25B8EE5B
:1014F000400A012B01F1010C66D0032B18BF022B0F
:1015000062D101EE10CADEF80C10B8EE411A9FED60
:101510004D2A6FF35F2182EE011A02EE101A9FED41
:101520004A3AB8EE422A20EE030A30EE020AB7EE3B
:10153000002A30EE022ADEF8001021EE020AC9036A
:1015400071D5DEF80C10B7EE002AC1F3462101EE8A
:10155000101AB8EE411A31EE021A80EE011ABCEEF2
:10156000C11A11EE102A0260DEF80010890360D55E
:10157000DEF80C10B7EE002AC1F3064101EE101A96
:10158000B8EE411A31EE021A80EE011ABCEEC11A11
:1015900011EE102A4260DEF8001049034FD5DEF844
:1015A0000C10B7EE002AC1F3066101EE101AB8EE76
:1015B000411A31EE021A80EE010ABCEEC00A10EEAA
:1015C000101A8160B0BD00BF5EF8201C090203D470
:1015D000DEF8CC100B0401E05EF8203C4AF6A412C1
:1015E000190FC0F6000202EB810102EE10CA91ED64
:1015F000001AB8EE422AB8EE411A9FED133A81EE76
:10160000022A01EE105A20EE030AB8EE411A30EE1B
:10161000010AB7EE001A30EE011ADEF8001021EED2
:10162000020AC9038DD400220260DEF8001089038B
:101630009ED400224260DEF800104903AFD400219E
:101640008160B0BD0024744B00000039B0B540F695
:101650002C4EC4F2026EDEF81050DEF80030DEF8D8
:101660000010DEF80020DEF81440C2F30012C4F3CC
:10167000CC04C1F3032104FB02F203F0030300EEE8
:10168000102A6FF35F25B8EE400A012B01F1010C1F
:1016900066D0032B18BF022B62D101EE10CADEF810
:1016A0001010B8EE411A9FED4D2A6FF35F2182EEC4
:1016B000011A02EE101A9FED4A3AB8EE422A20EEC5
:1016C000030A30EE020AB7EE002A30EE022ADEF8F4
:1016D000001021EE020AC90371D5DEF81010B7EE32
:1016E000002AC1F3462101EE101AB8EE411A31EE7C
:1016F000021A80EE011ABCEEC11A11EE102A026025
:10170000DEF80010890360D5DEF81010B7EE002A6D
:10171000C1F3064101EE101AB8EE411A31EE021A79
:1017200080EE011ABCEEC11A11EE102A4260DEF8FA
:10173000001049034FD5DEF81010B7EE002AC1F3B0
:10174000066101EE101AB8EE411A31EE021A80EE6F
:10175000010ABCEEC00A10EE101A8160B0BD00BFD5
:101760005EF8241C090203D4DEF8C8100B0401E063
:101770005EF8243C4AF6A412190FC0F6000202EBF0
:10178000810102EE10CA91ED001AB8EE422AB8EEBD
:10179000411A9FED133A81EE022A01EE105A20EE13
:1017A000030AB8EE411A30EE010AB7EE001A30EE25
:1017B000011ADEF8001021EE020AC9038DD40022BE
:1017C0000260DEF8001089039ED400224260DEF839
:1017D00000104903AFD400218160B0BD0024744BD8
:1017E00000000039B0B540F6304EC4F2026EDEF8AB
:1017F0001450DEF80030DEF80010DEF80020DEF8CD
:101800001840C2F30012C4F3CC04C1F3032104FB5B
:1018100002F203F0030300EE102A6FF35F25B8EE27
:10182000400A012B01F1010C66D0032B18BF022BDB
:1018300062D101EE10CADEF81410B8EE411A9FED25
:101840004D2A6FF35F2182EE011A02EE101A9FED0E
:101850004A3AB8EE422A20EE030A30EE020AB7EE08
:10186000002A30EE022ADEF8001021EE020AC90337
:1018700071D5DEF81410B7EE002AC1F3462101EE4F
:10188000101AB8EE411A31EE021A80EE011ABCEEBF
:10189000C11A11EE102A0260DEF80010890360D52B
:1018A000DEF81410B7EE002AC1F3064101EE101A5B
:1018B000B8EE411A31EE021A80EE011ABCEEC11ADE
:1018C00011EE102A4260DEF8001049034FD5DEF811
:1018D0001410B7EE002AC1F3066101EE101AB8EE3B
:1018E000411A31EE021A80EE010ABCEEC00A10EE77
:1018F000101A8160B0BD00BF5EF8281C090203D435
:10190000DEF8C4100B0401E05EF8283C4AF6A4128D
:10191000190FC0F6000202EB810102EE10CA91ED30
:10192000001AB8EE422AB8EE411A9FED133A81EE42
:10193000022A01EE105A20EE030AB8EE411A30EEE8
:10194000010AB7EE001A30EE011ADEF8001021EE9F
:10195000020AC9038DD400220260DEF80010890358
:101960009ED400224260DEF800104903AFD400216B
:101970008160B0BD0024744B0000003980B584B094
:10198000024643F6FF7300209B1A70EB01034FDA07
:101990004FF6FF73C0F21F039B1A70EB010380F236
:1019A000B5806FF07E439B1A4FF0000C7CEB010377
:1019B000C0F222814FF6FF73C0F27F039B1A7CEBCB
:1019C0000103C0F2A98182F400130B4300F0EC8202
:1019D00082F48002114340F0B48440F60041C4F226
:1019E0000261D1F8E00000F44040B0F5804F00F013
:1019F000B383002800F08C830A68B0F5004F03D150
:101A000012F4806240F061840A68B0F5404F4FF0F4
:101A1000000040F0968412F0200200F09284886862
:101A2000000200F1DD84D1F8F400000400F0E3BC12
:101A3000D2F17F0370EB0103C0F2AE80013A61F195
:101A40000001D2F13F034FF0000373EB0101C0F03E
:101A50007884DFE812F04100E5017604FF017604A6
:101A60007604760419027604760476047604760405
:101A700076047604330276047604760476047604DB
:101A80007604760476047604760476047604760486
:101A9000760476044F02760476047604760476049F
:101AA0007604760476047604760476047604760466
:101AB0007604760476047604760476047604760456
:101AC0007604760476047604760476047604760446
:101AD000760476047F0200BF40F60040C4F2026044
:101AE000D0F8E01001F00301012900F0358300294E
:101AF00000F02E830268022903D112F4806240F0C4
:101B0000E483D0F8F000032900F036BC4FF6FF73F1
:101B1000C0F201039B1A4FF0000C7CEB010380F232
:101B200099804FF6FF73C0F207039B1A7CEB010309
:101B3000C0F2168182F400330B4300F0538282F42A
:101B40008022114340F0FD8340F60040C4F2026061
:101B5000D0F8F010D0F8F02001F44071B1F5807F9A
:101B600003D112F0020240F05781D0F8F020B1F515
:101B7000007F03D112F0006240F06282006810F42E
:101B800000301CBF4AF22010C0F20700B1F5407FC0
:101B900018BF002004B080BD40F2FF339B1A4FF005
:101BA000000C7CEB010380F2878040F6FF739B1AE8
:101BB0007CEB0103C0F2F88082F480630B4300F0F9
:101BC0002B8282F40062114340F0BB8340F6004058
:101BD000C4F20260D0F8E81011F4407100F03483D0
:101BE000D0F8F020B1F5807F40F0778112F00062EC
:101BF00040F0268271E100BF6FF078439B1A7CEBC6
:101C00000103C0F2EF8082F000730B4300F02282E8
:101C100082F08062114340F0948340F60040C4F2A9
:101C20000260D0F8E410C1F30151DFE811F0950231
:101C30000500DD02E50200BF0168890640F1A783C7
:101C40008168090200F1B683D0F8F400000400F0C6
:101C5000D2BB00BF82F480430B4300F0138282F4B6
:101C600000430B4300F02E8282F48032114340F097
:101C7000688340F60041C4F20261D1F8E40000F04C
:101C80000702042A00F283834BF68030DFE812F06B
:101C90002E021402BE015903060000BF0868800628
:101CA00040F175838868000200F19C83D1F8F4004C
:101CB000000400F0A0BB00BF82F080030B4300F0E3
:101CC000198282F480730B4300F0268282F4007242
:101CD000114340F0368340F60040C4F20260D0F871
:101CE000E81011F4406100F0BB82D0F8F020B1F5AB
:101CF000806F03D112F0006240F0A2810268B1F55A
:101D0000006F03D112F4806240F0DF82D0F8F0005F
:101D1000B1F5406F30E300BF82F400030B4300F0E5
:101D20000B8282F08072114340F00B8340F600403A
:101D3000C4F20260D0F8E010C1F30141DFE811F015
:101D4000E8010C025A0204000168890640F11F8371
:101D50008168090200F13083D0F8F40000044AE3FE
:101D600082F400230B4300F0FB8182F480121143C4
:101D700040F0E78240F60040C4F20260D0F8E01084
:101D8000C1F38161DFE811F0240138023002040060
:101D90000168890640F1FB82816809025ABFD0F8C8
:101DA000F4000004806826E382F480530B4300F0C3
:101DB000EB8182F40052114340F0C38240F60041AF
:101DC000C4F20261D1F8E400C0F34212042A00F226
:101DD000DE824BF68030DFE812F0310269016F01DC
:101DE000B4024F0282F000630B4300F0E98182F0FD
:101DF0008052114340F0A58240F60041C4F20261D6
:101E0000D1F8E800D1F8F02010F4004040F0FA8159
:101E100012F0020200F0F6814FF4004004B080BDE1
:101E200040F60040C4F20260D0F8E01001F00C016E
:101E3000042900F09181002900F06A8102680829D4
:101E400003D112F4806240F04082D0F8F0000C29F7
:101E500092E200BF40F60040C4F20260D0F8E01009
:101E600001F03001102900F07781002900F0508145
:101E70000268202903D112F4806240F02682D0F853
:101E8000F000302978E200BF40F60040C4F2026062
:101E9000D0F8E01001F0C001402900F05D81002978
:101EA00000F036810268802903D112F4806240F08C
:101EB0000C82D0F8F000C0295EE200BF40F600407E
:101EC000C4F20260D0F8E01001F44071B1F5807FF7
:101ED00000F04281002900F01B810268B1F5007F0B
:101EE00003D112F4806240F0F081D0F8F000B1F537
:101EF000407F41E240F60041C4F20261D1F8E800BF
:101F000000F00700012800F02781002800F0108170
:101F10000A68022803D112F4806240F0D681D1F819
:101F2000F020032803D112F002027FF475AF0A6893
:101F300004284FF0000040F0048212F0200200F06C
:101F400000828868000200F15582D1F8F400000494
:101F500051E200BF40F60041C4F20261D1F8E00056
:101F600000F44060B0F5806F00F0F680002800F0CB
:101F7000CF800A68B0F5006F03D112F4806240F0A0
:101F8000A4810A68B0F5406F4FF0000040F0D9819D
:101F900012F0200200F0D5818868000200F11E8254
:101FA000D1F8F400000426E240F60040C4F20260DA
:101FB000D0F8E410490400F17F80D0F8E010C1F3BC
:101FC0008161DFE811F0050019011101E10100BF95
:101FD000006846F600418004C0F2DC2101EAE070AE
:101FE00004B080BD40F60041C4F20261D1F8E800BF
:101FF000C0F30242042A00F2CA814BF68030DFE8C7
:1020000012F075005B000500A001AD0101A8FFF70B
:10201000E9FB029804B080BD40F60040C4F20260C3
:10202000D0F8E01011F4402100F07280D0F8F020D8
:10203000B1F5802F40F0428112F0006200F03E8145
:10204000D0F8F000C0004FF0FA0058BF4FF4FA404B
:1020500004B080BD40F60040C4F20260D0F8E81041
:10206000C1F3C101DFE801F06478C60201688906A6
:1020700040F18D818168090200F1A081D0F8F4005F
:102080000004B8E140F60041C4F20261D1F8E40076
:10209000C0F30222042A00F27A814BF68030DFE896
:1020A00012F0CD0005000B005001EB0001A8FFF776
:1020B00099FB019804B080BD01A8FFF7FBF90198D6
:1020C00004B080BD40F60041C4F20261D1F8E800DE
:1020D000C0F30232052A00F22781DFE812F0070080
:1020E0003D001F0125012501350100BF00F060FE04
:1020F00004B080BD40F60041C4F20261D1F8E000B6
:1021000000F44050B0F5805F26D0002840F0BE803B
:1021100000F064FE04B080BD40F60040C4F20260EE
:10212000D0F8E810C1F38111DFE801F0021664D69F
:1021300000F094FE04B080BD40F60040C4F202609E
:10214000D0F8E010C1F30151DFE801F0020654D0ED
:1021500000F064FE04B080BD00F0A0FE04B080BDBD
:1021600040F60040C4F20260D0F8E410026811F4B6
:10217000405155D112F4005252D046F60040C0F200
:10218000DC2004B080BD00BF40F60040C4F2026015
:10219000D0F8E410026811F4006103D112F48062F7
:1021A00040F09380006810F480601CBF41F2002072
:1021B000C0F27A00002908BF084604B080BD00BF05
:1021C00040F60041C4F20261D1F8E000096810F065
:1021D000407002D111F4003177D1B0F1007F2DD0E1
:1021E000B0F1807F40F0D38001A8FFF763F9029837
:1021F00004B080BD006840E001A8FFF727FA02980C
:1022000004B080BDD1F8F02000284FF0000018BFC6
:1022100012F0006200F09580D1F8F00012E700BFE4
:102220000268B1F5805F6BD112F4005268D043F2BE
:102230000060C0F26E1004B080BD00BF01A8FFF7BF
:1022400005FA019804B080BD0168890640F19F80BD
:102250008168090200F1AA80D0F8F4000004CAE005
:102260000168890640F193808168090200F1A0802D
:10227000D0F8F4000004BEE0086842F200414005D6
:10228000C0F2F40101EAE07004B080BD0A68B0F564
:10229000005F02D112F4806217D10A68B0F5405F86
:1022A0004FF000004DD112F020024AD088680002A1
:1022B00000F19A80D1F8F40000049CE00268B1F5C6
:1022C000002F55D112F4806252D042F20040C0F289
:1022D000F40004B080BD00BF0168890657D581684D
:1022E00009026DD4D0F8F400000484E00168890686
:1022F0004DD58168090265D4D0F8F40000047AE075
:10230000006810F480601CBF42F20040C0F2F4008C
:10231000B1F5005F18BF002013E000BF01A8FFF770
:1023200095F9039804B080BD00F4E0420B6842F2D6
:102330000040B2F5405FC0F2F4002BD113F400333B
:1023400028D004B080BD00BF086880061FD588680B
:10235000000241D4D1F8F40000044CE00868800683
:1023600015D58868000241D4D1F8F400000442E099
:10237000D0F8F000B1F5402F00F002024FF000005D
:1023800008BF900304B080BD016889061CD40020FA
:1023900004B080BD096811F4806118BF0146B2F530
:1023A000804F18BF0021084604B080BD806822E03D
:1023B000806820E080681EE080681CE080681AE089
:1023C000806818E0806816E08168090210D4D0F8AF
:1023D000F40000040FE000BF88680CE088680AE0A1
:1023E000886808E0886806E0886804E0886802E099
:1023F000806800E08868C0F303604AF6A411C0F664
:10240000000151F8200004B080BD00002DE9F04F1C
:1024100081B00446006840F6E04BC107C4F2026B8D
:1024200020D1810728D4410730D4010738D4C10610
:1024300040D4810648D4410650D4010658D4C10581
:1024400060D4410268D4810570D4410579D4010576
:1024500000F1828040F628488004C4F2026800F14E
:102460008A80B4E0DBF80010226D21F003011143F3
:10247000CBF800108107D6D5DBF80010626D21F093
:102480000C011143CBF800104107CED5DBF800104A
:10249000A26D21F030011143CBF800100107C6D521
:1024A000DBF80010E26D21F0C0011143CBF8001001
:1024B000C106BED5DBF80010226E21F44071114335
:1024C000CBF800108106B6D5DBF80810626E21F05B
:1024D00007011143CBF808104106AED5DBF8001018
:1024E000A26E21F440611143CBF800100106A6D57D
:1024F000DBF80010E26E21F440511143CBF80010DC
:10250000C1059ED5DBF80810226F21F0C0011143F0
:10251000CBF80810410296D5DBF80010626F21F469
:1025200040411143CBF8001081058ED5DBF808102F
:10253000A26F21F440611143CBF8081041057FF5EB
:1025400086AFDBF80010E26F21F440211143CBF895
:10255000001001057FF57EAFDBF80810D4F880206D
:1025600021F440711143CBF8081040F6284880044C
:10257000C4F202682BD5D4F890004FEA70110429F8
:102580000CD8DFE801F0030D171D1D0004F1080051
:1025900003F022FF0646D8B908E000BF012617E085
:1025A00004F12C0003F094FF064688B9D4F890009B
:1025B00006E000BFD8F8001041F48031C8F80010E0
:1025C000DBF8041021F0E0010843CBF804000026FA
:1025D0006078400602D4374638E000BFD4F8940053
:1025E0004FEA302004280BD83746DFE800F0030F0D
:1025F0001B14140004F1080003F0EEFE0AE000BF13
:10260000012701256078000624D449E004F12C005C
:1026100003F05EFF07463D4677B16078000619D4A7
:102620003EE000BFD8F80000374640F48030C8F8DC
:102630000000002F3D46F0D1DBF80400D4F89410E0
:1026400020F4E06008430027CBF8040035466078AA
:10265000000625D5D4F8A8004FEA3030052807D861
:1026600002280BD03E468FB1A078C0071CD139E0BC
:1026700001270126A078C00716D133E004F1080035
:1026800003F0AAFE0746002F3E46EDD1DBF8080016
:10269000D4F8A81020F4E04008430027CBF8080045
:1026A0002E46A078C0071DD0D4F88800042800F278
:1026B000A981DFE810F00B000500AB010B000B0057
:1026C000D8F8000040F48030C8F800003D4657B903
:1026D000DBF80400D4F8881020F007000843002736
:1026E000CBF804003546A07880071FD5D4F88C00BD
:1026F0004FEA3040042800F29381DFE810F00B002D
:10270000050095010B000B00D8F8000040F4803064
:10271000C8F80000B94657B9DBF80800D4F88C10A7
:1027200020F4E02008430027CBF80800A946A07851
:10273000400701D44D465DE05BF84C0C10F0040AF4
:102740000BD15BF84C0C40F004004BF84C0C5BF8E0
:102750004C0C00F00400009000984FF60045CFF6B6
:10276000FF7558F8050040F0010048F80500FEF735
:10277000BBFC064658F80500C00707D1FEF7B4FCBD
:10278000801B0228F6D9032703252AE03D4647BBD4
:10279000DBF8100010F4407018D0D4F8C010884254
:1027A00011D0DBF81000DBF8101020F4407041F479
:1027B0008031CBF81010DBF8101021F48031CBF809
:1027C0001010CBF81000C00740F03881DBF8100083
:1027D000D4F8C01020F44070084300274D46CBF8D1
:1027E0001000BAF1000F05D15BF84C0C20F004008A
:1027F0004BF84C0CA078C0061BD5D4F8A0004FEACB
:10280000B060032800F2E880DFE800F00702EA0782
:1028100004F1080003F0E0FD0746394657B9DBF83C
:102820000000D4F8A01020F0406008430027CBF847
:10283000000029462068020320D5D4F8982032B140
:10284000B2F5005F18BFB2F5805F40F0D5803E461C
:1028500067B1C10415D481021ED4010230D4C10174
:1028600039D4810142D440014BD471E0DBF804300B
:10287000002723F440531A43CBF804200E46C1042A
:10288000E9D5DBF80410D4F89C2021F40061114351
:10289000CBF804108102E0D5D4F8A410B1F5804F34
:1028A00005D1D8F8002042F48032C8F80020DBF8C7
:1028B000042022F480421143CBF804100102CED54B
:1028C000DBF80010D4F8B42021F440111143CBF808
:1028D0000010C101C5D5DBF80010D4F8B82021F4F0
:1028E00040311143CBF800108101BCD5DBF8081052
:1028F000D4F8BC2021F018011143CBF80810400196
:1029000026D5D4F8B000B0F5401F0FD0B0F5001FA9
:1029100005D1D8F8000040F40030C8F800003D466A
:1029200067B1E078000717D43EE000BF04F108006B
:1029300003F052FD0746002F3D46F2D1DBF80400BC
:10294000D4F8B01020F4401008430027CBF804005E
:102950003546E078000727D5D4F8840058B1B0F1A7
:10296000007F11D0B0F1807F30D1D8F8000040F462
:102970000030C8F8000077B1E078C00618D43846B7
:1029800001B0BDE8F08F00BF04F1080003F024FDA2
:102990000746002FF0D1DBF80000D4F8841020F0B7
:1029A00040700843CBF800002F46E078C006E6D51B
:1029B000DBF80800D4F8AC1020F400400843CBF852
:1029C0000800384601B0BDE8F08F00BF0127E0786D
:1029D000C006D4D5ECE700BF012701212AE700BFDC
:1029E000D8F8000040F40030C8F80000002F394645
:1029F0007FF420AF13E700BF01270126C1047FF554
:102A00002AAF3EE7012701256DE600BF04F12C0047
:102A100003F05EFD0746002F3D467FF464AE57E6A7
:102A200001274FF0010982E604F12C0003F050FD6C
:102A30000746002FB9467FF47AAE6DE6FEF754FBE9
:102A400006460327032500BFDBF8100080073FF58B
:102A5000BDAEFEF749FB801B41F288318842F3D9B5
:102A6000BFE600002DE9F04F81B0002800F01C8186
:102A700042F20008C4F202080446D8F800000D46ED
:102A800000F00F0088420DD2D8F8000020F00F00AF
:102A90002843C8F80000D8F8000000F00F00A84252
:102AA00040F00281206840F62049C106C4F2026964
:102AB0000DD56169D9F8042002F07002914206D95F
:102AC000D9F8042022F070021143C9F8041001075C
:102AD0000FD52169D9F80020702303EA1212914220
:102AE00007D9D9F8002022F4E06242EA0111C9F8BE
:102AF000001041070DD5E168D9F8002002F07002FE
:102B0000914206D9D9F8002022F070021143C9F889
:102B1000001081070DD5A168D9F8002002F00F023E
:102B2000914206D9D9F8002022F00F021143C9F8CA
:102B30000010C00774D1206881070DD5A168D9F8AD
:102B4000002002F00F02914206D2D9F8002022F0B4
:102B50000F021143C9F80010D8F8001001F00F015E
:102B6000A9420DD9D8F8001021F00F012943C8F867
:102B70000010D8F8001001F00F01A94240F0948035
:102B800041070DD5E168D9F8002002F070029142AA
:102B900006D2D9F8002022F070021143C9F80010C3
:102BA00001070FD52169D9F80020702303EA12121A
:102BB000914207D2D9F8002022F4E06242EA0111E2
:102BC000C9F80010C0060DD56069D9F8041001F0ED
:102BD0007001884206D2D9F8041021F07001084330
:102BE000C9F8040000F05AF9D9F800104AF60C129E
:102BF00001F00F01C0F60002525C40F20801C2F27F
:102C00000001096840F2140320FA02F2C2F2000344
:102C100008461A6001B0BDE8F04FFEF7EDBA00BFFC
:102C2000606840F61C47C4F2026768B3022831D0DE
:102C3000032835D1D9F8740010F0040A0BD1D9F863
:102C4000740040F00400C9F87400D9F8740000F072
:102C5000040000900098FEF747FA4FF6F03BCFF6DD
:102C6000FF7B57F80B10490322D4BAF1000F05D1AE
:102C7000D9F8740020F00400C9F8740057F81C0C4F
:102C8000800111D5606822E057F81C0C40070BD575
:102C900000201CE057F81C0C800317D4012042E0F0
:102CA00057F81C1C490512D4012001B0BDE8F08F73
:102CB000064600BF57F80B004004D6D4FEF714FABE
:102CC000801B02284FF00300F4D92CE00220396861
:102CD00021F0030108433860FEF706FA61680646F2
:102CE000032941F2883A28D0022934D071B900BFB3
:102CF000386810F00C0F3FF41EAFFEF7F5F9801B9B
:102D000050454FF00300F3D90DE000BF386800F0E4
:102D10000C0004283FF40FAFFEF7E6F9801B504586
:102D20004FF00300F2D901B0BDE8F08FFEF7DCF9F7
:102D3000801B50454FF00300F5D8386800F00C00B8
:102D40000C28F3D1F7E600BFFEF7CEF9801B504503
:102D50004FF00300E7D8386800F00C000828F3D1E2
:102D6000E9E600001F22026040F62042C4F202623F
:102D700052F8043C03F003034360136803F00F03AD
:102D80008360136803F07003C360D2F800C070233F
:102D900003EA1C130361526802F07002426142F2BE
:102DA0000000C4F20200006800F00F0008607047E5
:102DB00080B500F073F840F62041C4F20261096862
:102DC0004AF60C1201F00F01C0F60002515CC84037
:102DD00040F21401C2F20001086080BD80B500F02D
:102DE0005DF840F62041C4F202610A684AF60C130D
:102DF00002F00F02C0F600039A5CD04040F21402C9
:102E0000C2F20002106009684AF61C12C1F30211F6
:102E1000C0F60002515CC84080BD000080B500F0E3
:102E20003DF840F62041C4F202610A684AF60C13EC
:102E300002F00F02C0F600039A5CD04040F2140288
:102E4000C2F20002106009684AF61C12C1F30221A6
:102E5000C0F60002515CC84080BD000080B500F0A3
:102E60001DF840F62041C4F202610A684AF60C13CC
:102E700002F00F02C0F600039A5CD04040F2140248
:102E8000C2F20002106049684AF61C12C1F3021136
:102E9000C0F60002515CC84080BD000080B540F61D
:102EA0002841C4F2026151F80C0C10F00C020868C1
:102EB00016D00C2A04BF00F00300012810D051F8EE
:102EC0000C0C9FED370A00F00C00042842F2004081
:102ED000C0F2F4001ED0082A18BF00201AE000BF7C
:102EE00051F8200C000205D4D1F8CC00C0F3033017
:102EF00003E000BF51F8200C000F4AF6A413C0F6FF
:102F0000000353F82000002A00EE100A18BF00202A
:102F1000B8EE400A0C2A18BF80BDD1F800C00A687C
:102F20009FED201AC2F303220B6802F1010E08691B
:102F30005FEA8C7258BFB0EE401A00EE10EAC3F39D
:102F40000013B8EE400AC0F3CC0081EE000A00FB8B
:102F500003F09FED153A01EE100AC868B8EE411A69
:102F60006FF35F2002EE100A21EE031AB8EE422A38
:102F7000C86831EE021AB7EE002AC0F3066031EEDF
:102F8000021A013020EE010A01EE100AB8EE411AD1
:102F900080EE010ABCEEC00A10EE100A80BD00BF30
:102FA000000000000024744B000000392DE9F043BC
:102FB00081B0002800F0468440F694490446C4F2EB
:102FC000026959F8780C59F86C1C227800F00C074B
:102FD000D00601F0030823D42078C0077AD0082F48
:102FE00074D00C2F08BFB8F1030F6FD0606840F6A3
:102FF0000046B0F5803FC4F2026600F0EB82B0F507
:10300000A81F00F0DF82B0F5A02F40F0F7823068F3
:1030100040F480203060306820F48010D9E200BF96
:1030200017B30C2F08BFB8F1010F1DD040F60046B2
:10303000C4F20266E1693068002900F0BB8140F00B
:1030400001003060FEF750F8054600BF30684007C9
:1030500000F1C281FEF748F8401B02284FF0030040
:10306000F4D901B0BDE8F083E069002800F0EA83FC
:1030700040F60045C4F20265666AA86800025ABFBD
:10308000D9F860000004A86800F07040864240F261
:103090006581002F40F03483D9F80000400700F12B
:1030A0001383D9F8000040F00400C9F80000D9F8F3
:1030B000000000F0040000900098FEF7F3F9D9F842
:1030C000001021F00401C9F80010FFE26068002838
:1030D00000F0B883207880072FD5042F20D00C2F44
:1030E00008BFB8F1020F1BD040F60046C4F20266DA
:1030F000E1683068002900F0298240F48070306077
:10310000FDF7F2FF054600BF306840050CD4FDF71F
:10311000EBFF401B02284FF00300F5D9A1E700BFE9
:10312000E068002800F08E8359F8840C216920F4AF
:10313000F81040EA014049F8840C207840F6004736
:103140000007C4F2026775D42078400700F1CA80F6
:103150002078800600F116812078000600F1508169
:103160002078400600F1B881A56B002D00F0A784FF
:1031700059F8780C00F00C000C2840F06F8259F8D8
:103180006C1C59F8600C012D00F05C83E26B01F0BF
:103190000303934240F05683226CC1F30323013AA8
:1031A000934240F04F83626C01F47041914240F0D1
:1031B0004983A26C01466FF35F21013A914240F0CE
:1031C0004183E16CC0F3462201398A4240F03A83E0
:1031D000216DC0F3064201398A4240F03383616DAC
:1031E000C0F306600139884240F02C8359F85C0C2A
:1031F000E16DC0F3CC00884200F0618459F86C0C9A
:1032000020F0100049F86C0CFDF76EFF0546FDF745
:103210006BFFA842FBD0E06DC00049F85C0C59F888
:103220006C0C40F0100049F86C0C002001B0BDE8B7
:10323000F08300BFD9F8000010F004080BD1D9F8D2
:10324000000040F00400C9F80000D9F8000000F0C8
:103250000400009000984FF62846CFF6FF76B85944
:10326000C00713D1B85940F00100B851FDF73CFF39
:10327000054600BFB859C00708D1FDF735FF401B10
:103280000228F7D9032001B0BDE8F0836069D9F8BE
:103290005C10002800F0CC80A06901F080529042C0
:1032A00000F04A8301F04062B2F1006F00F0CA8280
:1032B000490140F13A83D9F85C0020F0A050C9F8E8
:1032C0005C00FDF711FF0546D9F85C00000140F1F4
:1032D0002B83FDF709FF401B05284FF00300F3D9AE
:1032E000BFE600BFD9F8000010F004080BD1D9F8F0
:1032F000000040F00400C9F80000D9F8000000F018
:103300000400009000984FF62846CFF6FF76B85993
:10331000C00713D1B85940F00100B851FDF7E4FEE1
:10332000054600BFB859C00708D1FDF7DDFE401BB8
:1033300002284FF00300F5D993E600BFA568E8071F
:1033400040F08C80D9F85C0020F00100C9F85C00E6
:10335000D9F85C0020F004008CE000BFA868B6F14A
:10336000404F40F40000A860A86820F0704040EA98
:103370000600A860C0F0CA80E868216A20F01F003B
:1033800008431CE2E16A3868002900F0098140F432
:1033900080503860FDF7A8FE054600BF38688004FD
:1033A0003FF5DAAEFDF7A0FE401B02284FF0030008
:1033B000F4D956E620F001003060FDF795FE054691
:1033C000306840077FF508AEFDF78EFE401B0228EF
:1033D0004FF00300F4D944E6B06840F40000B06058
:1033E000B168606A21F070410143B0F1404FB160B3
:1033F000C0F09C80F068216A20F01F0008435EE264
:10340000216B3868002900F0178140F48040386053
:10341000FDF76AFE054600BF386800043FF5A0AE20
:10342000FDF762FE401B02284FF00300F4D918E6B6
:1034300021F0A050C9F85C00FDF756FE054600BF1C
:10344000D9F85C00000140F18F82FDF74DFE401B72
:1034500005284FF00300F3D903E600BFD9F85C005C
:10346000690705D540F00400C9F85C00D9F85C0094
:1034700040F00100C9F85C00FDF736FE002D05465E
:1034800041F2883614D000BFD9F85C0080076FD4B1
:10349000FDF72AFE401BB0424FF00300F4D9E0E5EF
:1034A000FDF722FE401BB0424FF003003FF6D9ADBE
:1034B000D9F85C008007F3D4D9F85C00000600F16D
:1034C0000182B8F1000F7FF443AED9F8000020F07C
:1034D0000400C9F800003BE6606B002800F0E080C3
:1034E000B86840F40000B860B86820F07061D4E9B2
:1034F0000902B0F1404F41EA0201B960C0F04A81CF
:10350000F868216A20F01F000843EAE2B6F1FF3FA5
:1035100040F31A81E868B6F1804FC0F04B81216A10
:1035200020F4F84040EA812049E100BFB0F1FF3FBC
:1035300040F39481F168B0F1804FC0F0BB81206A04
:1035400021F4F84141EA8020B9E100BF20F4807005
:103550003060FDF7C9FD0546306840057FF5EDADEB
:10356000FDF7C2FD401B02284FF00300F4D978E5B7
:10357000A168D9F85C00090600F1F88020F080000D
:1035800041F28836C9F85C00D9F85C00000598D58E
:10359000FDF7AAFD401BB0424FF00300F4D960E5EF
:1035A00020F480503860FDF79FFD054638688004A0
:1035B0007FF5D2ADFDF798FD401B02284FF00300C8
:1035C000F4D94EE5306840F480203060306840F433
:1035D00080103060306840F480303060FDF784FD4A
:1035E000054600BF306880033FF574ADFDF77CFDF4
:1035F000401B64284FF00300F4D932E531680028FD
:1036000021F480313160316821F4802131603168EA
:1036100021F480113160E1D1FDF766FD0546306887
:1036200080037FF557ADFDF75FFD401B64284FF029
:103630000300F4D915E500BF20F480403860FDF7A1
:1036400053FD0546386800047FF58AADFDF74CFD53
:10365000401B02284FF00300F4D902E5386820F03F
:1036600080703860FDF740FD022D05460CD13868AA
:10367000800140F18581FDF737FD401B02284FF0A6
:103680000300F4D9EDE400BF3868800140F10E82F8
:10369000FDF72AFD401B02284FF00300F4D9E0E4B7
:1036A000386820F010003860FDF71EFD05463868C8
:1036B00080067FF559ADFDF717FD401B02284FF03E
:1036C0000300F4D9CDE400BFFDF7ECFE20F4803117
:1036D000B1F5003F40D10021B6F1805F38BF012134
:1036E00042F20000C4F20200026822F00F020A4413
:1036F0000260006800F00F00884240F0A380666A14
:10370000A868B6F1404F40F40000A860A86820F017
:10371000704040EA0600A86006D3E868216A20F0FD
:103720001F000843A7E000BFB6F1FF3F40F38E80C3
:10373000E868B6F1804FC0F09980216A20F4F84023
:1037400040EA812097E000BFE868216A20F47870A1
:1037500040EA411033E000BF0021B1EB167F40F09A
:10376000C780B0F5803F6DD10321B9E740F08000FC
:1037700041F28836C9F85C00D9F85C0000053FF5D5
:10378000A0AEFDF7B1FC401BB0424FF00300F3D9EF
:1037900067E400BFB0F1FF3F40F39681F968B0F1F4
:1037A000804FC0F09981206A21F4F84141EA8020DD
:1037B00097E100BF216A20F4782040EAC130002F51
:1037C000E86059D1D9F80000400715D4D9F80000B5
:1037D00040F00400C9F80000D9F8000000F004002F
:1037E00000900098FDF75EFED9F8001021F004016A
:1037F000C9F8001002E000BFFDF754FE20F480314C
:10380000B1F5003F14D10021B6F1805F38BF01212E
:1038100042F20000C4F20200026822F00F020A44E1
:103820000260006800F00F0088420BD124E000BF66
:103830000021B1EB167F69D1B0F5803F02D10321A1
:10384000E6E700BF012001B0BDE8F083E868216A27
:1038500020F4787040EA41100DE000BFF068216A62
:1038600020F4787040EA411029E000BF216A20F47A
:10387000782040EAC130E860FFF710FB59F8741C6B
:103880004AF60C1201F00F01C0F60002515C40F242
:10389000140220FA01F140F20800C2F200000068B0
:1038A000C2F200021160FDF7A7FC00287FF4D9AB3B
:1038B000FFF792BB206A21F4782141EAC030F06022
:1038C000FFF78ABBD9F85C0041F2883620F080000F
:1038D000C9F85C00D9F85C0000057FF5F2ADFDF792
:1038E00003FC401BB0424FF00300F3D9FFF7B9BB14
:1038F000B6F1005F40F20C81B0FA80F0002140097F
:10390000B6F1405F98BF01210140E9E6B6F1005FE2
:1039100040F20881B0FA80F000214009B6F1405F22
:1039200098BF0121014073E7A069D9F85C1021F02C
:1039300080510843C9F85C00D9F85C0040F0806011
:10394000C9F85C00FDF7D0FB054600BFD9F85C0064
:10395000000109D4FDF7C8FB401B05284FF0030008
:10396000F4D9FFF77EBB00BFB8F1000F7FF4ECABDA
:10397000D9F8000020F00400C9F80000FFF7E4BB0C
:10398000D9F8000010F0040C0BD1D9F8001041F068
:103990000401C9F80010D9F8001001F004010091E9
:1039A00000994FF60C48CFF6FF7857F808E057F823
:1039B00008304FF6037623F4802347F8083059F88F
:1039C0006C3CD4E91102B343D4E90F656FF0FF01F9
:1039D0003343184301EB05214FF47E43084349F874
:1039E0006C0C59F8600C0021C8F280010840511E8F
:1039F000E26C4FF4FE0503EB4222236D6FF35F216F
:103A000005EB0343656D92B24FF0FE4606EB05658C
:103A1000084403F4FE03104405F0FE45184428440E
:103A200049F8600C59F86C0C20F0100049F86C0C47
:103A3000E06DC00049F85C0C59F86C0C40F01000C7
:103A400049F86C0C59F86C0CA16D20F00C0008437F
:103A50005FEA4E3149F86C0C05D557F8080040F480
:103A6000802047F80800BCF1000F05D1D9F800000C
:103A700020F00400C9F8000059F86C0C40F48020D4
:103A800049F86C0C386840F080703860FDF72CFB0A
:103A900004463868800112D4FDF726FB001B02287B
:103AA0004FF00300F5D9FFF7DCBA00BF59F86C0CF2
:103AB0004FF6FC71CFF6F871084049F86C0C002005
:103AC00001B0BDE8F08300BFF868216A20F4787087
:103AD00040EA411005E000BF206A21F4782141EA64
:103AE000C030F860386840F010003860FDF7FCFA2C
:103AF000054600BF386880063FF536ABFDF7F4FA9F
:103B0000401B02284FF00300F4D9FFF7AABA00BF08
:103B10000221B0F5803F08BF0121B6F1805F18BFD8
:103B20000121DDE50221B0F5803F08BF0121B6F19A
:103B3000805F18BF01216BE6F0B581B0002861D02D
:103B40000446006842F2000240F08053C5F2006271
:103B500000219342A16203D1E1680F2952D800E00D
:103B6000E168E36B012505EB53130831C90803FB3A
:103B700001F143F2FF73C5F20003984210DC43F6F3
:103B80000002C4F2000290423AD043F20002C4F2B2
:103B90000102904234D042F20002C4F200620BE013
:103BA00043F60003C5F20003984229D043F2000314
:103BB000C5F20103984223D0904201D1082921D8AF
:103BC00094F8891031B9002084F88800204600F06C
:103BD00071F82068022184F88910016821F0010140
:103BE00001608368A7696268B7F1806F03F4F81C0D
:103BF00014D15AB1B2F5800F10D1A36BA3B909E06B
:103C00001029DDD9012001B0F0BD00BFA36BB3F1D5
:103C1000805F05D1036843F480530360530203D4EB
:103C2000E3684FF0010E0DE0E368072B08D3D0F8EE
:103C300000E0266D2EF4807535434FF0000E04E051
:103C40004FF0000E056825F480750560E569A66AE9
:103C500045EA0C05E16B2E4331431943A5682669FB
:103C600063698160616B3A43676A1143A26B3943B0
:103C700011433143226A1943E36C11431943A26C87
:103C80002943A36D1143E26D1943236E1143194378
:103C9000BEF1000FC16005D1C168626D21F0004125
:103CA0001143C16000200121C4F88C0084F8891000
:103CB00001B0F0BD704700002DE9F04381B004462B
:103CC00090F8880001281CD0D4F8009001201D46EF
:103CD00017460E4684F88800FDF706FA94F8891016
:103CE00001290BD1002E18BF002F0FD1002084F81E
:103CF0008800012001B0BDE8F08300BF002084F8F7
:103D00008800022001B0BDE8F08300BF8046032098
:103D1000002184F88900C4F88C106666A4F86870E5
:103D2000A4F86A70E166A4F87010A4F87210A06894
:103D3000A167B0F5C02F2068E16705D10168024690
:103D400041F4006106E000BF024652F80C1F012357
:103D500063F35241116041684FF6FF729143394459
:103D60004160016841F001010160C169890207D425
:103D70006168B1F5800F03D1016841F40071016001
:103D8000E168102912D343F2FF71C5F200018842A5
:103D900000F3948043F60001C4F20001884200F071
:103DA000998043F20001C4F2010191E0072900F279
:103DB000CF80B4F86A10002900F02881691C44D033
:103DC0004FF6FE718E1E4F1C4169890706D4FDF720
:103DD0008BF9A0EB0800A8422BD343E1B4F86A109A
:103DE000042909D3E16B402906D9616E51F8042BEF
:103DF00002623046616617E0B4F86A1002290BD3FC
:103E0000E16B49B1606E30F8021BA9F820106066C2
:103E10004FF6FE7008E000BF616E097880F8201050
:103E2000606E013060663846B4F86A100844A4F841
:103E30006A00B4F86A00002800F0E8802068416950
:103E40008907CBD4C3E700BF20684169890703D441
:103E5000FDF74AF92CE000BFB4F86A1004290BD32F
:103E6000E16B412908D3616E51F8042B026261664F
:103E7000B4F86A00043819E0B4F86A1002290BD3C8
:103E8000E16B49B1606E30F8021BA9F82010606642
:103E9000B4F86A00023809E0616E097880F82010F1
:103EA000606E01306066B4F86A000138A4F86A00F8
:103EB000B4F86A000028C7D1A8E000BF43F20001AF
:103EC000C5F20101884205D043F60001C5F20001A8
:103ED00088423DD1B4F86A10002900F09780691C2F
:103EE0001FD000BF4169890706D4FDF7FDF8A0EB9C
:103EF0000800A8420AD3B5E0616E51F8042B0262B3
:103F00006166B4F86A000138A4F86A00B4F86A007F
:103F1000002800F07B80206841698907E5D5EBE740
:103F200020684169890703D4FDF7DEF80AE000BF85
:103F3000616E51F8042B02626166B4F86A000138C0
:103F4000A4F86A00B4F86A000028E9D15EE000BF76
:103F5000B4F86A10002959D0691C35D04FF6FE71AB
:103F60004E1C4169890707D4FDF7BEF8A0EB080095
:103F7000A8421BD376E000BFB4F86A10022909D327
:103F8000E16B39B1616E51F8042B02624FF6FE709D
:103F9000616606E0606E30F8021BA9F820106066CA
:103FA0003046B4F86A100844A4F86A00B4F86A000D
:103FB00060B3206841698907DED4D5E7FDF794F83E
:103FC000B4F86A0000BB21E041698907F6D5B4F86E
:103FD0006A1002290AD3E16B41B1616E51F8042BDA
:103FE00002626166B4F86A00023808E0606E30F878
:103FF000021BA9F820106066B4F86A000138A4F822
:104000006A00B4F86A0008B12068DDE7681C13D0C4
:1040100020684069000713D4FDF766F8A0EB08009C
:10402000A842F5D3D4F88C0040F02000C4F88C00EE
:1040300006E000BFFDF758F8206840690007F9D591
:10404000204602F0C1FA002084F88800012084F89C
:104050008900D4F88C00002818BF012001B0BDE809
:10406000F08300BF204602F0AFFA002084F88800F9
:10407000D4F88C0040F48070C4F88C00012084F8DF
:104080008900032001B0BDE8F08300002DE9F0476E
:10409000044690F88800012804BF0220BDE8F0879C
:1040A000D4F8009001209A4615460F4684F88800FF
:1040B000FDF71AF894F8891001290BD127B1002DCA
:1040C00018BFBAF1000F0BD1002084F8880001203E
:1040D000BDE8F087002084F888000220BDE8F08762
:1040E00080460520002184F88900C4F88C10E5661C
:1040F000A4F872A0A4F870A06766A4F86AA020686B
:10410000A4F868A0A167E167C1684FF6FF7221F4C7
:10411000C021C1604168914351444160016841F050
:1041200001010160C169890207D46168B1F5800F9E
:1041300003D1016841F400710160E168089D102914
:1041400010D343F2FF71C5F2000188424ADC43F606
:104150000001C4F20001884250D043F20001C4F2D1
:10416000010149E0072900F28380681C00F03A81D0
:10417000574606E0FCF7B8FFA0EB0800A84280F025
:10418000B18057EA0A0000F067812068BAF1000F99
:10419000416918BF11F002010ED0616E097880F8F4
:1041A0002010616E206801316166B4F86A1001392F
:1041B000A4F86A10B4F86AA04169002F18BF11F082
:1041C0000101D7D090F83000E16E0870E06E013048
:1041D000E066B4F872000138A4F87200B4F87270A6
:1041E000C8E700BF43F20001C5F20101884205D0D3
:1041F00043F60001C5F20001884239D1681C00F085
:10420000838048F20809574606E000BFFCF76CFFC0
:10421000A0EB0800A84265D257EA0A0000F01C8112
:104220002068BAF1000F416918BF11F002010BD0EC
:10423000616E51F8042B02626166B4F86A100139AC
:10424000A4F86A10B4F86AA04169002F18BF11EAF7
:104250000901DBD0006BE16E41F8040BE166B4F8B4
:1042600072000138A4F87200B4F87270CEE700BF93
:10427000681C00F08180574606E000BFFCF734FF61
:10428000A0EB0800A8422DD257EA0A0000F0E48013
:104290002068BAF1000F416918BF11F002010CD07B
:1042A000616E31F8022BA9F820206166B4F86A101B
:1042B0000139A4F86A10B4F86AA04069002F18BF49
:1042C00010F00100DAD0B9F83000E16E21F8020BED
:1042D000E166B4F872000138A4F87200B4F87270A4
:1042E000CCE700BF204602F06FF9002084F8880078
:1042F000D4F88C0040F48070C4F88C00012084F85D
:1043000089000320BDE8F087002048F208075646E0
:104310000AE000BFFCF7E8FEBAFA8AF05AEA0601A2
:104320004FEA501000F098802168002E4A6918BFAB
:1043300012F002020BD0626E52F8043B0B6262660E
:10434000B4F86A20013AA4F86A20B4F86A604A69AD
:104350003A40B2FA82F252091043C007DAD1086B30
:10436000E16E41F8040BE166B4F872000138A4F87C
:104370007200B4F872A0CDE700200127564608E08D
:10438000FCF7B2FEBAFA8AF05AEA06014FEA501078
:1043900062D02168002E4A6918BF12F002020CD0C8
:1043A000626E32F8023BA9F820306266B4F86A20E7
:1043B000013AA4F86A20B4F86A60496927EA010161
:1043C0000843C007DCD1B9F83000E16E21F8020BD8
:1043D000E166B4F872000138A4F87200B4F872A073
:1043E000CEE700BF00204FF00109574609E000BFAB
:1043F000FCF77AFEBAFA8AF05AEA07014FEA50103F
:104400002AD02168002F4A6918BF12F002020ED08C
:10441000626E127881F82020626E21680132626635
:10442000B4F86A20013AA4F86A20B4F86A704A69BC
:1044300029EA02021043C007DAD191F83000E16E98
:104440000870E06E0130E066B4F872000138A4F83C
:104450007200B4F872A0CBE7681C13D020684069E2
:10446000000713D4FCF740FEA0EB0800A842F5D3E8
:10447000D4F88C0040F02000C4F88C0006E000BFA7
:10448000FCF732FE206840690007F9D5204602F0AB
:104490009BF8002084F88800012084F88900D4F873
:1044A0008C00002818BF0120BDE8F087704700008D
:1044B0007047000070470000704700007047000020
:1044C0007047000070470000002804BF01207047BB
:1044D00010B5044690F83D0028B9002084F83C004F
:1044E000204600F023F8022084F83D002068211DBA
:1044F00002F002FC012084F8480084F83E0084F8B1
:104500003F0084F8400084F8410084F8420084F8B9
:10451000430084F8440084F8450084F8460084F899
:10452000470084F83D00002010BD000070470000E7
:1045300090F83D1001291CBF01207047022180F82E
:104540003D100168C868B1F1A04F40F00100C8609B
:1045500016DA40F6FF30C4F20000814226DD43F255
:10456000FF30C4F2010081423CDC40F60040C4F25E
:10457000000081424ED042F60040C4F2010047E004
:1045800040F6FF30C5F2000081421DDD43F2FF30EE
:10459000C5F20100814231DC40F60040C5F2000066
:1045A000814237D042F6004030E000BFB1F1804F89
:1045B00030D040F20040C4F2000081422AD040F6E0
:1045C0000000C4F2000023E0B1F1A04F22D040F27D
:1045D0000040C5F2000081421CD040F60000C5F248
:1045E000000015E043F20040C4F20100814211D006
:1045F00044F20000C4F201000AE000BF44F20000EF
:10460000C5F20100814205D043F20040C5F201002D
:1046100081420DD188680722C0F201020240062AB9
:104620004FF0000018BFB2F5803F01D1704700BFC6
:10463000086840F0010008600020704770470000E3
:1046400010B5016804460869800744BFC8685FEA7E
:10465000807061D40869400744BFC8685FEA407051
:1046600066D40869000744BFC8685FEA00706DD46B
:104670000869C00644BFC8685FEAC06072D40869B0
:10468000C0071CBFC8685FEAC07079D1086900061E
:1046900044BFC8685FEA00607AD40869C00544BFB7
:1046A000C8685FEA006000F17B800869400644BF8B
:1046B000C8685FEA406000F17B800869800644BFFB
:1046C000C8685FEA806000F17B800869C00244BF6F
:1046D000C8685FEAC02000F17B800869800244BF9F
:1046E000C8685FEA802000F17B800869400244BF0F
:1046F000C8685FEA402000F17B800869000246BF7D
:10470000C8685FEA002010BD6FF4000220460A610D
:10471000BDE81040FFF7D6BE6FF00200086101202F
:104720002077886980076BD02046FFF787FF6DE010
:104730006FF00400086102202077886910F4407F40
:1047400068D02046FFF77AFF6AE000BF6FF00800EC
:10475000086104202077C869800765D02046FFF7EC
:104760006DFF67E06FF01000086108202077C869CE
:1047700010F4407F62D02046FFF760FF64E000BF86
:104780006FF001000861204600F066F821687DE7BF
:104790006FF0800008612046FFF78AFE21687CE701
:1047A0006FF4807008612046FFF780FE21687CE787
:1047B0006FF040000861204600F058F821687CE75F
:1047C0006FF0200008612046FFF774FE21687CE747
:1047D0006FF4801008612046FFF770FE21687CE7C7
:1047E0006FF4001008612046FFF766FE21687CE741
:1047F0006FF4800008612046FFF762FE21687CE7C5
:10480000204600F025F8204600F024F8216800201A
:1048100020771FE7204600F01BF8204600F01AF82A
:104820002168002020771CE7204600F011F8204680
:1048300000F010F821680020207719E7204600F0EA
:1048400007F8204600F006F821680020207716E7D8
:104850007047000070470000006841F20001C4F298
:104860000001884208BFFCF78DBC7047704700000C
:1048700090F88410012904BF022070472421C0F859
:10488000881002681168136823F00103136021F097
:1048900000530021416613602022C0F8882080F870
:1048A0008410084670470000B0B590F88420012AB3
:1048B00004BF0220B0BD2422C0F888200268D0F8CE
:1048C00064E0D2F800C01368BEF1000F23F00103CA
:1048D0001360936823F0606341EA0301916019D08B
:1048E000936891684AF6202E490FC0F6000E4AF6EA
:1048F00028251EF80140C0F60005C3F34263695C39
:10490000E400B4FBF1F11EF80340EB5CE500B5FBFD
:10491000F3F301E001210123A0F86A102021A0F89F
:104920006830C2F800C0C0F88810002180F88410F8
:104930000846B0BDB0B590F88420012A04BF02201B
:10494000B0BD2422C0F888200268D0F864E0D2F814
:1049500000C01368BEF1000F23F0010313609368D9
:1049600023F0604341EA0301916019D09368916894
:104970004AF6202E490FC0F6000E4AF628251EF8EA
:104980000140C0F60005C3F34263695CE400B4FB78
:10499000F1F11EF80340EB5CE500B5FBF3F301E039
:1049A00001210123A0F86A102021A0F86830C2F884
:1049B00000C0C0F88810002180F884100846B0BDFF
:1049C00010B5B0B10446D0F8880028B9002084F8AA
:1049D0008400204600F028F82420C4F888002068CD
:1049E000016821F001010160204602F0EFFB01287F
:1049F00002D1012010BD00BFA06A00281CBF2046C4
:104A000002F0B8FA2168486820F49040486088684D
:104A100020F02A008860086840F0010220460A6001
:104A2000BDE8104002F01ABBB0B5BAB0044602A807
:104A300000250830C0213995CDE93755CDE93555E8
:104A4000FBF762FC206843F60001C4F201018842D2
:104A500002D03AB0B0BD00BF0120029002A8039579
:104A60001695FDF7D3FC002818BFFBF7DFFE40F6D4
:104A70008C40C4F20260816941F4804181618169A6
:104A800001F4804101910199016841F00101016047
:104A9000006835A900F00100019001984FF4C06052
:104AA0003590022036900020CDE93700072039905C
:104AB0000020C4F20220FCF7F5F93AB0B0BD0000C6
:104AC0002DE9F04182B00446D0F8880020281EBFAE
:104AD000022002B0BDE8F0810E4600294FF001002F
:104AE0001CBF1746002A03D102B0BDE8F08100BF09
:104AF00020681D468168090603D5816821F0800180
:104B000081604FF000082120C4F89080C4F888002C
:104B1000FCF7EAFAA4F85470A4F85670A1680746A6
:104B2000B1F5805F0FD12069002814BF3046B04630
:104B3000064608E016F8010B21688862B4F85600B2
:104B40000138A4F85600B4F8560088B120468021F8
:104B500000223B46009502F047FCC8B9002EE9D17F
:104B600038F8020B21686FF35F2088620026E5E7C2
:104B70002046402100223B46009502F035FC2021D2
:104B8000C4F88810002818BF032002B0BDE8F081E7
:104B90002020C4F88800032002B0BDE8F0810000A6
:104BA000FEE70000F0B583B000284FF0010600F0EA
:104BB000C380044600796179002818BF0120820172
:104BC00004320025002908BF82011220C4F2022508
:104BD0008DF802008DF80320284610210022FCF7F2
:104BE0007DFA0296029800EB80008000019000BFE1
:104BF0000198411E019188B100BF0198411E0191A9
:104C000060B100BF0198411E019138B100BF019809
:104C1000411E019110B100BFEAE700BF40F26010F1
:104C2000C2F200000DF1020102220A23FFF744F84C
:104C300006462846102101220127FCF74FFA029769
:104C4000029800EB80008000019000BF0198411E97
:104C5000019188B100BF0198411E019160B100BF70
:104C60000198411E019138B100BF0198411E019188
:104C700010B100BFEAE700BF002E4FF001065BD184
:104C8000207861780022084310218DF802108DF8F9
:104C9000030028461021FCF721FA0296029800EB47
:104CA00080008000019000BF0198411E019188B1F1
:104CB00000BF0198411E019160B100BF0198411EE3
:104CC000019138B100BF0198411E019110B100BFA0
:104CD000EAE700BF40F26010C2F200000DF10201ED
:104CE00002220A23FEF7E8FF064628461021012289
:104CF0000127FCF7F3F90297029800EB800080008F
:104D0000019000BF0198411E019188B100BF019838
:104D1000411E019160B100BF0198411E019138B15F
:104D200000BF0198411E019110B100BFEAE700BF2A
:104D3000002E4FF0010603D0304603B0F0BD00BF97
:104D4000A078E1780022084311218DF802108DF837
:104D5000030028461021FCF7C1F90296029800EBE7
:104D600080008000019000BF0198411E019188B130
:104D700000BF0198411E019160B100BF0198411E22
:104D8000019138B100BF0198411E019110B100BFDF
:104D9000EAE700BF40F26010C2F200000DF102012C
:104DA00002220A23FEF788FF064628461021012228
:104DB0000125FCF793F90295029800EB8000800032
:104DC000019000BF0198411E019188B100BF019878
:104DD000411E019160B100BF0198411E019138B19F
:104DE00000BF0198411E019110B100BFEAE700BF6A
:104DF00026B10126304603B0F0BD00BF6178E078EF
:104E00004FEAB101032905D819A202EB810191ED06
:104E1000000A01E09FED150A4FEAB00140F20C00D4
:104E2000C2F20000032980ED000A07D8DFE801F094
:104E3000020E12160021C4F20C1112E00021C4F27D
:104E40008C2100264160304603B0F0BD0021C4F241
:104E50008C1106E00021C4F20C2102E00021C4F212
:104E60008C2141600026304603B0F0BD23DBF93DC4
:104E700023DB793D23DBF93E23DBF93D23DB793E60
:104E80002DE9F04F87B000208DF80F004AF6B400EE
:104E9000C0F6000081880068ADF80C100290142064
:104EA000FBF7ECFF0DF10F0000F0C6F99DF80F10B5
:104EB000002808BF6C2905D06EA06C2205F06EF8A2
:104EC000012559E000244FF48970C4F20224ADF8A2
:104ED0001000204610210022FCF700F9012606965A
:104EE000069800EB80008000059000BF0598411EE9
:104EF000059188B100BF0598411E059160B100BFC2
:104F00000598411E059138B100BF0598411E0591D5
:104F100010B100BFEAE700BF40F26010C2F200002B
:104F200004A902220A23FEF7C7FE054620461021E7
:104F30000122FCF7D3F80696069800EB800080006B
:104F4000059000BF0598411E059188B100BF0598E6
:104F5000411E059160B100BF0598411E059138B111
:104F600000BF0598411E059110B100BFEAE700BFE0
:104F7000002D4FF0010503D0284607B0BDE8F08FA3
:104F800040F260194FF0920A4FF00A0B0DF1100831
:104F9000C2F200090DF112060120FBF76FFF204657
:104FA00010210022ADF810A0FCF798F8069506989D
:104FB00000EB8000800005900598411E059188B1A6
:104FC00000BF0598411E059160B100BF0598411EC4
:104FD000059138B100BF0598411E059110B100BF81
:104FE000EAE700BF4846414632460223CDF800B00A
:104FF000FFF74CF80746204610210122FCF76EF817
:105000000695069800EB8000800005900598411EEB
:10501000059188B100BF0598411E059160B100BFA0
:105020000598411E059138B100BF0598411E0591B4
:1050300010B100BFEAE700BF57B99DF81300C007E1
:10504000AAD10A20FBF71AFF02A8FFF7ABFD28B18F
:105050000125284607B0BDE8F08F00BF4AF6BE60C4
:10506000C0F6000005F014FC0025284607B0BDE896
:10507000F08F00BF5B4C534D3644534F585D205763
:10508000484F5F414D5F4920E5A4B1E8B4A53A20FF
:10509000E8AFBB3D30782530325820E69C9FE69C37
:1050A0009B3D3078253032580D0A0000F0B58BB0AA
:1050B000044600200026ADF82200CDF81E00CDF8F1
:1050C0001A00CDF81600CDF80F000390CDE90100CD
:1050D000A020C4F202268DF81500304610210022CF
:1050E000FBF7FCFF01270A970A9800EB800080007D
:1050F000099000BF0998411E099188B100BF099825
:10510000411E099160B100BF0998411E099138B153
:1051100000BF0998411E099110B100BFEAE700BF26
:1051200040F260100A250DF11501C2F2000001AA3B
:105130000F230095FEF7AAFF0546304610210122F5
:10514000FBF7CCFF0A970A9800EB800080000990DB
:105150000998411E099188B100BF0998411E099123
:1051600060B100BF0998411E099138B100BF09988C
:10517000411E099110B100BFEAE700BF15B12846F2
:105180000BB0F0BDBDF905009FED2A1A00EE100A24
:10519000BDF90710B8EEC00ABDF9092020EE010ADA
:1051A000B3EE091ABDF90B0030EE010A01EE101A38
:1051B00040F20C0784ED060A04EE102AC2F2000742
:1051C000B8EEC11A97ED012AB8EEC44A05EE100AEE
:1051D000BDF90D30BDF90F1022EE011AB8EEC55A17
:1051E00022EE044ABDF9110084ED031A22EE052ACD
:1051F00005EE103A01EE101A84ED044A84ED052AFA
:1052000004EE100A97ED003AB8EEC55AB8EEC11A8E
:10521000B8EEC44A23EE050A23EE011A23EE043A3F
:1052200084ED000A84ED011A84ED023A28460BB0A1
:10523000F0BD00BF0000803BF0B585B000250446FE
:105240008F20C4F20225ADF80A0028461021002262
:10525000FBF744FF01270497049800EB80008000CF
:10526000039000BF0398411E039188B100BF0398CB
:10527000411E039160B100BF0398411E039138B1F4
:1052800000BF0398411E039110B100BFEAE700BFC1
:1052900040F260100A260DF10A01C2F2000002AAD3
:1052A00002230096FEF7F2FE064628461021012250
:1052B000FBF714FF0497049800EB80008000039034
:1052C0000398411E039188B100BF0398411E0391CA
:1052D00060B100BF0398411E039138B100BF03982D
:1052E000411E039110B100BFEAE700BF16B130467E
:1052F00005B0F0BD9DF809002070304605B0F0BD46
:10530000F0B585B0002504469E20C4F20225ADF814
:105310000A00284610210022FBF7E0FE012704972F
:10532000049800EB80008000039000BF0398411EAA
:10533000039188B100BF0398411E039160B100BF83
:105340000398411E039138B100BF0398411E039199
:1053500010B100BFEAE700BF40F260100A260DF16D
:105360000A01C2F2000002AA02230096FEF78EFE96
:105370000646284610210122FBF7B0FE0497049848
:1053800000EB8000800003900398411E039188B1D8
:1053900000BF0398411E039160B100BF0398411EF6
:1053A000039138B100BF0398411E039110B100BFB3
:1053B000EAE700BF16B1304605B0F0BD9DF8090020
:1053C0002070304605B0F0BD10B54AF6E420C0F6B6
:1053D000000002F02DFB40F22004C2F20004206025
:1053E00046F2E1604AF63022C0F60000C0F6000244
:1053F000002102F0A5FB606046F2C5604AF6FC128F
:10540000C0F60000C0F60002002102F099FBA06087
:1054100046F2E9604AF65422C0F60000C0F60002E7
:10542000002102F08DFBE06046F6E1004AF69C2286
:10543000C0F60000C0F60002002102F081FB2061EE
:1054400002F0E8FB46F205704AF67822C0F600004A
:10545000C0F60002002102F073FB606102F0DAFB8B
:1054600046F6D5204AF6C022C0F60000C0F600027B
:10547000002102F065FBA06110BD0000F0B587B00F
:10548000002640F68C400696C4F20260016840F6A1
:10549000000441F0040101600168C4F2022401F03B
:1054A0000401019101990168002241F001010160AC
:1054B000006842F2200100F00100019001982046AE
:1054C00042F22005FBF70AFE029502AD01272046B5
:1054D0002946CDE903760596FBF7E4FC4FF48050AE
:1054E00002A9C1C1A4F500602946FBF7DBFC07B0A7
:1054F000F0BD000080B586B0FBF7FCFD002818BFAA
:10550000FBF794F900200121CDE90100CDE903105A
:10551000059001A90020FBF70FFE002818BFFBF73C
:1055200085F906B080BD00002DE9F04387B0002664
:1055300040F68C400696C4F202600168002441F0F7
:10554000010101600168C4F2022401F0010101912E
:10555000019981690DF1080941F4805181618069E7
:105560004FF0010800F48050019001981020029043
:10557000022720464946CDE903860597FBF792FCB2
:10558000204610210122FBF7A9FDA020CDE902074A
:10559000052520464946CDE904670695FBF782FCC0
:1055A000402002A981E8810120464946CDE90575E0
:1055B000FBF778FC40F2601043F200044FF48001E6
:1055C000C2F20000C4F2010407224FF000734FF052
:1055D00080774FF080654FF0804CC0E900414FF07C
:1055E0000041C0E90262C0E90437C0E9065CC0E9D5
:1055F0000866C0E90A624663C6634165FEF79CFA25
:10560000002818BFFBF712F907B0BDE8F0830000CF
:105610002DE9F04186B0002640F68C400596C4F294
:105620000260016840F2004441F00201016001683B
:10563000C4F2022401F0020100910099016901AD58
:1056400041F48041016100694FF0010800F480409D
:105650000090009841F2010001900227204629465F
:10566000CDE902860497FBF71DFC20464FF48051DC
:105670000122FBF733FD204601210122FBF72EFD1D
:105680004FF42040CDE9027604970527019020468B
:1056900029460597FBF706FC4FF480400190204611
:1056A0002946CDF80C800597FBF7FCFB40F2F01083
:1056B00043F600044FF48001C2F20000C4F200047B
:1056C00007224FF000734FF080774FF080654FF066
:1056D000405CC0E900414FF00041C0E90262C0E90E
:1056E0000437C0E9065CC0E90866C0E90A6246639F
:1056F000C6634165FEF720FA002818BFFBF796F84D
:1057000006B0BDE8F081000080B540F2CC2043F641
:1057100000034FF4E131C2F200000022C4F20103A1
:105720004FF00C0CC0E90031C0E90222C0E9042CA2
:10573000C0E90622C0E908228262FFF741F9002889
:1057400018BFFBF773F840F2CC20C2F20000002132
:10575000FFF7F0F8002818BFFBF768F840F2CC20FC
:10576000C2F200000021FFF79FF8002818BFFBF7E6
:105770005DF840F2CC20C2F20000FFF779F8002873
:1057800008BF80BDBDE88040FBF750B8FEE70000D1
:10579000FEE7000000000000000000000000000024
:1057A000EFF309801EF0100F08BF20ED108AEFF311
:1057B0000B82734620E9FC0F114A116808604FF014
:1057C000500080F31188BFF34F8FBFF36F8F03F04A
:1057D00091FC4FF0000080F31188094A11680868B5
:1057E000B0E8FC0F13F0100F08BFB0EC108A82F382
:1057F0000B8880F30988184700BF00BF00BF00BFB7
:105800003C00002070470000704700002DE9F04F79
:1058100085B040F200442EA0C4F2022405F038F80E
:105820000DF10D004AF6BC0A40F2F01700F1010834
:105830004FF00009C0F6000AC2F200074FF0000B5B
:105840000AE000BF41682AA02A4604F0A7FB0BF13A
:10585000010BBBF10A0F31D01AF83B50012145F082
:1058600080008DF80D0020460022A8F80490C8F8AA
:105870000090CDF80790CDF80490FBF72FFC384648
:105880000DF10D0101AA02230A260096FEF7FEFB88
:105890000646204601210122FBF720FC0AEBCB0043
:1058A000002ECFD19DF8053041681BA02A4604F098
:1058B00075FB0BF1010BBBF10A0FCDD14AF60E704F
:1058C000C0F6000004F0E4FF05B0BDE8F08F00BFB3
:1058D0005B514D4136313030505D203D3D3D204BD8
:1058E00045592052454753203D3D3D0D00000000E5
:1058F0005B514D4136313030505D20257328307872
:105900002530325829203D203C7265616420666153
:10591000696C3E0D0A0000005B514D41363130305C
:10592000505D2025732830782530325829203D20BD
:105930003078253032580D0A000000002DE9F04F74
:1059400085B040F200442AA0C4F2022404F0A0FF73
:105950000DF10D0040F2F01700F101084FF00009C1
:105960000DF1040BC2F200074FF0000A09E000BF7E
:105970002AA0294604F012FB0AF1010ABAF10F0F1E
:105980002FD022A010F80A50012145F080008DF898
:105990000D0020460022A8F80490C8F80090CDF829
:1059A0000790CDF80490FBF799FB38460DF10D01F7
:1059B0005A4602230A260096FEF768FB0646204652
:1059C00001210122FBF78AFB002ED1D19DF8052091
:1059D0001AA0294604F0E2FA0AF1010ABAF10F0FFF
:1059E000CFD11DA004F054FF05B0BDE8F08F00BF7B
:1059F0005B514D4136313030505D205265676973DF
:105A00007465722064756D703A0D0000000F1011FE
:105A100017181A1C2043454A50565700202072651B
:105A2000675B3078253032585D203D203C726561DF
:105A300064206661696C3E0D0A00000020207265DA
:105A4000675B3078253032585D203D203078253036
:105A500032580D0A000000000D0000002DE9F04F43
:105A600087B040F2501040F20047C2F2000000251B
:105A7000C4F20227C0E900558560C560384601219F
:105A80000122FBF72BFB0120FBF7F8F94BF2366004
:105A9000ADF80C00384601210022ADF81450FBF798
:105AA0001DFB40F2F0100A2603A9C2F2000005AA6D
:105AB00002230096FEF7EAFA044638460121012245
:105AC000FBF70CFB0CBB0120FBF7D8F9ADF8145029
:105AD00040F200453620C4F20225ADF80C002846FD
