:020000040800F2
:10000000E85D00204D020008D98A0008697E0008DA
:10001000D58A00083D080008A5C600085F02000850
:10002000000000000000000000000000F1AE000829
:100030004108000800000000F18A000871B20008C1
:1000400069020008690200086902000869020008E4
:1000500069020008690200086902000869020008D4
:1000600069020008690200086902000869020008C4
:1000700069020008690200086902000869020008B4
:1000800069020008690200086902000869020008A4
:100090006902000869020008690200086902000894
:1000A0006902000869020008690200086902000884
:1000B00000000000690200086902000869020008E7
:1000C0006902000869020008690200086902000864
:1000D0006902000869020008690200086902000854
:1000E0006902000869020008690200086902000844
:1000F0006902000869020008690200086902000834
:1001000069020008DDB200086902000869020008FF
:100110006902000869020008690200086902000813
:100120006902000869020008690200086902000803
:1001300069020008690200086902000869020008F3
:1001400069020008690200086902000869020008E3
:1001500069020008690200086902000869020008D3
:1001600069020008DD8A00086902000869020008C7
:10017000690200086902000869A300086902000812
:1001800069020008690200086902000869020008A3
:100190006902000869020008690200086902000893
:1001A0006902000869020008690200086902000883
:1001B00069020008000000006902000869020008E6
:1001C00069020008000000006902000869020008D6
:1001D0006902000869020008690200086902000853
:1001E0006902000869020008690200086902000843
:1001F0000000000000000000690200086902000819
:100200006902000869020008690200086902000822
:100210006902000869020008690200086902000812
:100220006902000869020008690200086902000802
:100230006902000869020008DFF80CD000F07CFABF
:100240000048004739EA0008E85D00200748804779
:1002500007480047FEE7FEE7FEE7FEE7FEE7FEE7AA
:10026000FEE7FEE7FEE7FEE7FEE7000091B20008CA
:10027000390200082DE9F05F0546002092469B46B2
:1002800088460646814640241BE0284641464746AC
:10029000224600F089F853465A46C01A914110D3BD
:1002A00011461846224600F070F82D1A67EB010837
:1002B0004F4622460120002100F067F817EB0009A5
:1002C0004E41201EA4F10104DFDC484631462A4697
:1002D0004346BDE8F09F40EA01039B0703D009E0D5
:1002E00008C9121F08C0042AFAD203E011F8013B22
:1002F00000F8013B521EF9D27047D2B201E000F87B
:10030000012B491EFBD270470022F6E710B51346B9
:100310000A4604461946FFF7F0FF204610BD30B5E7
:1003200004460020034600E05B1C934203D2E05CDD
:10033000CD5C401BF8D030BD00F0004230F00040F2
:100340000AD0C10D01F56071C0F3160042EA0151F7
:10035000C20840071143704700200146704730B57E
:100360000B46014600202022012409E021FA02F573
:100370009D4205D303FA02F5491B04FA02F528440D
:10038000151EA2F10102F1DC30BD202A04DB203A67
:1003900000FA02F1002070479140C2F1200320FAD8
:1003A00003F3194390407047202A04DB203A21FAD6
:1003B00002F00021704721FA02F3D040C2F120027E
:1003C00091400843194670472DE9FE4F804681EA67
:1003D0000300C00F0C46009021F0004123F00045BF
:1003E000B8EB0200A94105D24046214690461C4682
:1003F0000B46024623F00040104347D0270DC7F3B9
:100400000A00C3F30A510290401A019040286BDAA7
:10041000C3F3130040F4801B0098924620B10023E0
:10042000D2EB030A63EB0B0B01985946C0F1400273
:100430005046FFF7AAFF06460D4650465946019A18
:1004400000F08CF910EB08006141002487EA11529A
:1004500084EAE7731A4340D0009A62B3019A012AF2
:100460004FEA075215DC001B61EB02014FF000421E
:1004700002EA0752CDE90042001C41F580113246E4
:100480002B4600F08CF903B0BDE8F08F40462146C2
:10049000F9E7001B61EB0201001C41F58013001815
:1004A0005B412018A2F5001747EB030140EAD57025
:1004B000B6196D4111E06D084FEA360645EAC07580
:1004C0004FEA0752001B61EB0201001C41F580114D
:1004D00049084FEA30000019514132462B4603B01B
:1004E000BDE8F04F00F04CB9009801224000002315
:1004F000D0EB020263EBE073009821464FEAE07410
:10050000B8EB000061EB0401E9E783F000435BE72F
:1005100081F0004158E72DE9FE4F81EA030404F021
:10052000004421F0004100944FF0000B23F0004301
:1005300050EA01045ED052EA03045BD0C3F30A54CC
:10054000C1F30A552C44A4F2F3340194A0FB0254E5
:10055000C1F3130141F48011C3F3130343F4801377
:1005600001FB024400FB034E840A970A44EA8154CB
:1005700047EA8357A4FB076802958D0A05FB0785A8
:100580004FEA932C04FB0C542705029D4FEA0658B2
:1005900047EA1637B5EB08056EEB070C870E920E8F
:1005A00047EA811742EA8312A7FB0201B6EB0B016F
:1005B00064EB00042B0D43EA0C335E1844EB1C5033
:1005C000DA465146E7FB0201C5F313044FEA0B3349
:1005D00043EA14534FEA0432019C43EA0603A4F1B0
:1005E0000C040294009CCDE900B400F0D8F803B0EC
:1005F000BDE8F08F00200146F9E72DE9F04D81EAD2
:10060000030404F0004B21F0004514464FF0000AAB
:1006100023F0004150EA050220D054EA01021DD027
:10062000C5F30A570246C5F31303C1F31300C1F320
:100630000A5640F4801543F48013A7EB0608101BFC
:10064000D64608F2FD3873EB050002D308F1010825
:1006500001E092185B41B8F1000F03DA0020014677
:10066000BDE8F08D00204FF48011064684460EE070
:10067000171B73EB050705D3121B63EB050306433A
:100680004CEA010C49084FEA300092185B4150EAED
:100690000107EDD152EA030012D082EA040083EA96
:1006A0000501084305D0101BAB4106D201220023EF
:1006B00006E000224FF0004302E06FF00102531009
:1006C0001AEB06004CEB085110EB0A0041EB0B0152
:1006D000BDE8F04D00F054B8C1F30A52C1F3130164
:1006E00040F2FF3341F480119A4202DA00200146C1
:1006F000704740F233439A42A2F2334202DC524244
:10070000FFF752BEFFF741BE30B5041E71F1000481
:1007100004DB4FF00044404264EB0101141E73F10E
:10072000000405DB1C464FF00043524263EB040318
:10073000994208BF904230BD064C074D06E0E06884
:1007400040F0010394E8070098471034AC42F6D318
:10075000FFF776FD3431010854310108202A06DB09
:10076000CB17203A41FA02F043EAE07306E041FA7F
:1007700002F3D040C2F1200291400843194670476D
:1007800010B5141E73F1000408DA401C41F1000199
:1007900092185B411A4301D120F0010010BD2DE9F0
:1007A000F04D92469B4611B1B1FA81F202E0B0FAE7
:1007B00080F220329046FFF7E8FD04460F4640EAFB
:1007C0000A0041EA0B0153465A46084313D011462A
:1007D00053EA010019D0C8F140025046FFF7E4FD8A
:1007E00005460E46504659464246FFF7CEFD0843A1
:1007F00005D0012004E020463946BDE8F08D0020F8
:10080000054346EAE0762C4337430A986305E40A39
:10081000A0EB08000022FD0A44EA47540A3002D542
:1008200000200146E9E7010510196941DDE90845A5
:1008300000196941BDE8F04DA2E70000FEE70000A5
:1008400070470000EFF3108072B600BFFEE70000B3
:100850002DE9F04F81B02DED108BADF53C7D0028DA
:1008600000F0E480064640F29000C2F200004078BA
:10087000012840F0E38015460C4609F07BFD002876
:1008800000F0E4807068B16A221A631A306C317823
:10089000271A00294FF000003A923893339718BF77
:1008A0000121B2F57A7F98BF012096F824200840F4
:1008B0003990002A18BF01220020B3F57A7F98BF33
:1008C000012096F83C1010403790002918BF0121F4
:1008D0000020B7F57A7F98BF012008403690B068B5
:1008E000FFF72AFD41EC100BF0688DED340BFFF79C
:1008F00023FD41EC100B30698DED300BFFF71CFD33
:1009000041EC100B70698DED2E0BFFF715FD41ECDE
:10091000100BB0698DED2C0BFFF70EFD41EC1C0B9D
:10092000F069FFF709FD41EC1D0B306AFFF704FD8C
:1009300041EC1E0B96F92C0096F92DA02B90306BF4
:1009400096F92E90FFF7F8FC41EC1F0B706BFFF748
:10095000F3FC41EC180BB06BFFF7EEFC41EC190B0C
:10096000F06CB6F944B0B6F94670B6F94880FFF7B6
:10097000E3FC41EC1A0B306DFFF7DEFC41EC1B0B86
:10098000706DFFF7D9FC41EC100B33988DED24AB63
:100990008DED280BCDE920B71F908DED26BB369845
:1009A0008DED18FB9DED340B1E908DED1A8B379855
:1009B0008DED040B9DED300B12908DED1C9B389846
:1009C0008DED060B9DED2E0B13908DED0CCB2B9822
:1009D0008DED080B9DED2C0B14908DED0EDB3998F1
:1009E0008DED0A0B42F2C8728DED10EB3A9F01902B
:1009F0003BA8C0F601024FF400712346CDF8888071
:100A0000CDF854A0CDF858900095029710F08AFECA
:100A100004460020B0EB542F20D002200DF53C7D81
:100A2000BDEC108B01B0BDE8F08F00BF13200DF5B9
:100A30003C7DBDEC108B01B0BDE8F08F0C200DF5B6
:100A40003C7DBDEC108B01B0BDE8F08F03200DF5AF
:100A50003C7DBDEC108B01B0BDE8F08FBB9040F247
:100A6000D0103BA9C2F20000BBAB22460CF03CFF09
:100A70000146BB9800290A4608BF0222001B18BF86
:100A80001046002918BF10460DF53C7DBDEC108BBB
:100A900001B0BDE8F08F00002DE9F04387B040F2CF
:100AA0009008C2F2000898F8010028B100242046FE
:100AB00007B0BDE8F08300BF00200CF0C5F8C00708
:100AC00042D198F8000018B342F6C010C0F60100F9
:100AD00001A90CF017FE04283CD0044620B99DF86B
:100AE0000C00082121EA5004ECB398F80100012819
:100AF00008D140F2D010C2F200000CF007F900203B
:100B0000A8F8010098F800000128D0D179E000BFD2
:100B100009F030FCC0B140F20444C2F200042046A7
:100B20004FF40C71FFF7F0FB42F63811C0F60101EB
:100B30002046012201250CF06FFA04460028B6D1A8
:100B400088F80050C0E700BF0324204607B0BDE886
:100B5000F08300BF42F6C010C0F601000CF0F0F8C0
:100B60000446002CC1D1002408F102055CA601AFA7
:100B700042F20F790134284620213246234610F0F4
:100B8000D1FD1F2828D8284639460CF0BBFD18B9DE
:100B90004C45EFD1072422E004281FD140F2D010A9
:100BA000C2F2000029460A220CF0B8FAC0B304468B
:100BB00098F80100012808D140F2D010C2F20000DC
:100BC0000CF0A4F80020A8F8010098F80000012813
:100BD0007FF46DAF15E000BF062400E0012498F813
:100BE0000100012808D140F2D010C2F200000CF040
:100BF0008DF80020A8F8010098F8000001287FF483
:100C000056AF42F63811C0F601010020012200253E
:100C10000CF002FA88F80050204607B0BDE8F083D7
:100C20000020019040F2D01042F2A011C2F2000068
:100C300001ABC0F601014FF49A720CF055FE044668
:100C4000002808BF022425D10198B0F59A7F21D150
:100C500040F2D010C2F200000CF0B0FDA0B3044688
:100C600040F2D010C2F200000CF050F898F80100E9
:100C7000012808D140F2D010C2F200000CF046F872
:100C80000020A8F8010098F8000001287FF40FAFB9
:100C9000B7E700BF40F2D010C2F200000CF036F807
:100CA00098F80100012808D140F2D010C2F20000EB
:100CB0000CF02CF80020A8F8010098F8000001289A
:100CC0007FF4F5AE9DE700BF012088F8010009A080
:100CD000294610F017FD0024204607B0BDE8F08338
:100CE000303A2F4C4F472F4C4F47253034752E4309
:100CF000535600005B46617446735D20E697A5E598
:100D0000BF97E69687E4BBB6E5B7B2E68993E5BC44
:100D1000803A2025730D0A00B0B540F29005C2F26A
:100D20000005687801280CD140F2D014C2F200040A
:100D300020460CF043FD20460BF0E8FF0020A5F80C
:100D400001002878012818BFB0BD42F63811C0F65E
:100D500001010020012200240CF05EF92C70B0BDCE
:100D600040F29000C2F20000407801281CBF0C2025
:100D7000704740F2D010C2F200000CF01FBD00001E
:100D8000132882BF42F6E910C0F60100704740B256
:100D900042F26C01C0F6010151F8200070470000DA
:100DA000B0B5ADF5926D0020CDE9980018A84FF4CC
:100DB0000071FFF7A9FA68466021FFF7A5FA09F06C
:100DC000D9FA38B300200BF03FFFC0072CD140F216
:100DD0009005C2F20005287870B30FF20C5011F0A4
:100DE0002FF942F65D219AA8C0F601010A220CF003
:100DF00095F9002866D002460138C1B2122900F2E6
:100E00007B8040B242F2BC01C0F6010151F82010D3
:100E100076E000BF42F6DA00C0F6010011F010F9EA
:100E20000DF5926DB0BD00BF0FF2744011F008F9DE
:100E30000DF5926DB0BD00BF09F09CFA002833D0CB
:100E400040F20444C2F2000420464FF40C71FFF754
:100E50005BFA42F63811C0F6010120460122012456
:100E60000CF0DAF8132800F2CF8042F60921C0F620
:100E70000101DFE810F015001E00CF001900D500B9
:100E8000DB00E100E700ED00F300F900FF000501E1
:100E90000B01110117011D01230129012F0100BFC1
:100EA0000120287099E700BF42F66B21C0F60101CE
:100EB00003240FF21440224610F024FC0DF5926D2D
:100EC000B0BD00BF42F2D5219AA899ABC0F601018E
:100ED00017220CF009FD999B0246002808BF172B2A
:100EE0002ED0132A3ED850B242F26C01C0F6010156
:100EF00051F820103AE000BF42F6E911C0F60101B6
:100F00000FF2FC3010F0FEFB6878012808D140F2A7
:100F1000D010C2F200000BF0F9FE0020A5F801008D
:100F2000287801283AD142F63811C0F60101002094
:100F3000012200240CF070F82C700DF5926DB0BDFC
:100F40009AA80CF03BFC68B302460138C1B21229E2
:100F50003CD840B242F2BC01C0F6010151F8201069
:100F600038E000BF42F6E911C0F6010142F65E002A
:100F7000C0F6010010F0C6FB9AA80BF0C7FE687817
:100F8000012808D140F2D010C2F200000BF0BEFEE2
:100F90000020A5F8010028780128C4D00DF5926D35
:100FA000B0BD00BF9AA80BF0B1FE002800F09880F9
:100FB00002460138C1B2122900F2A88040B242F2C2
:100FC000BC01C0F6010151F82010A3E042F6E9117E
:100FD000C0F6010142F25070C0F6010010F092FB21
:100FE0009AA80BF093FE6878012808D140F2D0103F
:100FF000C2F200000BF08AFE0020A5F8010028785C
:101000000128CBD18FE700BF42F6E911C0F60101FC
:1010100004464EE742F61521C0F60101022448E7D6
:1010200042F68111C0F60101042442E742F6C711DD
:10103000C0F6010105243CE742F68C11C0F601011F
:10104000062436E742F63B11C0F60101072430E7DB
:1010500042F64921C0F6010108242AE742F6372169
:10106000C0F60101092424E742F65E11C0F6010131
:101070000A241EE742F6AF11C0F601010B2418E75F
:1010800042F64F11C0F601010C2412E742F6D811C6
:10109000C0F601010D240CE742F67111C0F6010102
:1010A0000E2406E742F65221C0F601010F2400E7A4
:1010B00042F64511C0F601011024FAE642F69C11F1
:1010C000C0F601011124F4E642F62021C0F6010128
:1010D0001224EEE642F6F411C0F601011324E8E60C
:1010E00042F65D219AA8C0F6010101220CF016F823
:1010F00040B302460138C1B2122939D840B242F297
:10110000BC01C0F6010151F8201035E042F6E911AA
:10111000C0F6010142F27C70C0F6010010F0F2FA54
:101120006878012808D140F2D010C2F200000BF01C
:10113000EDFD0020A5F80100287801287FF42EAFEE
:10114000F1E600BF6C469AA898AB21465F220CF0EE
:10115000A7F948B302460138C1B212294CD840B2AF
:1011600042F2BC01C0F6010151F8201048E000BF76
:1011700042F6E911C0F6010142F22A70C0F6010000
:1011800010F0C0FA6878012808D140F2D010C2F2FD
:1011900000000BF0BBFD0020A5F801002878012815
:1011A0007FF4FCAEBFE600BF9898002121549AA8B6
:1011B0000BF0ACFD42F2D521C0F60101204617220A
:1011C000FFF7ADF8B0B342F63A00C0F60100694649
:1011D00010F098FA6878012808D140F2D010C2F2D5
:1011E00000000BF093FD0020A5F8010028780128ED
:1011F0007FF4D4AE97E600BF42F6E911C0F60101D4
:1012000042F2A870C0F6010010F07CFA9AA80BF028
:101210007DFD6878012808D140F2D010C2F20000AC
:101220000BF074FD0020A5F80100287801287FF458
:10123000B5AE78E618A900200022012309F068FD68
:10124000B0B142F61010C0F6010010F0F9FE687857
:10125000012808D140F2D010C2F200000BF056FD78
:101260000020A5F80100287801287FF497AE5AE6FF
:1012700042F69600C0F6010010F0E2FE6878012800
:1012800008D140F2D010C2F200000BF03FFD002068
:10129000A5F80100287801287FF480AE43E600BF5E
:1012A0005B46617446735D20E5BA95E5B182E7A3BC
:1012B00081E79B98E5889DE5A78BE58C96E5A4B131
:1012C000E8B4A50D000000005B46617446735D2024
:1012D000E68C82E8BDBDE5A4B1E8B4A53A2025734B
:1012E00020282564290D0A005B46617446735D2041
:1012F000E68C82E8BDBDE68890E58A9F0D0000007F
:101300005B46617446735D20E68993E5BC80E6B573
:101310008BE8AF95E69687E4BBB6E5A4B1E8B4A543
:101320003A20257320282564290D0A002DE9F04F65
:1013300083B040F2004AC4F2022A814600274FF0EF
:1013400080080AF580664FF4FA6B00250AE000BFBA
:101350003046042101F0C6F8012808BF25430137B3
:10136000082F49D050464FF48061002228FA07F434
:1013700001F0BEF814EA0902304618BF012202212A
:1013800001F0B6F8CDF804B00198411E019188B182
:1013900000BF0198411E019160B100BF0198411E3C
:1013A000019138B100BF0198411E019110B100BFF9
:1013B000EAE700BF50464FF48061012201F098F83F
:1013C000CDF808B00298411E00280291C0D000BF9D
:1013D0000298411E00280291BAD000BF0298411E17
:1013E00000280291B4D000BF0298411E002802914B
:1013F000AED000BFE6E700BFE8B203B0BDE8F08FB3
:10140000F0B583B005468F2040F60006ADF8060023
:101410000020C4F202260C46ADF80400304620211C
:10142000012201F065F8C827029700BF0298411E0B
:10143000029188B100BF0298411E029160B100BFC5
:101440000298411E029138B100BF0298411E0291DC
:1014500010B100BFEAE700BF30462021002201F0B2
:1014600047F802970298411E029188B100BF029886
:10147000411E029160B100BF0298411E029138B135
:1014800000BF0298411E029110B100BFEAE700BF01
:1014900040F624400A270DF10601C2F2000001AA1D
:1014A0000223009705F056FF07463046202101220F
:1014B00001F01EF8C82002900298411E029188B1E6
:1014C00000BF0298411E029160B100BF0298411E08
:1014D000029138B100BF0298411E029110B100BFC5
:1014E000EAE700BF002D1CBF9DF804002870002C07
:1014F0001CBF9DF805002070384603B0F0BD000009
:101500002DE9F04786B0804640F624404FF0000AAF
:1015100040F60009C2F20000C4F20229CDF814A07E
:1015200005F052FC40F68C40C4F20260016801AF45
:1015300041F0010101600168012401F00101009105
:1015400000990168022541F002010160016801F083
:10155000020100910099016841F0040101600068F6
:10156000394600F004000090009820200190484681
:10157000CDE9024A049500F0A7FE1020A9F5006607
:1015800001903046394600F09FFE4FF4806001A97B
:1015900081E81104A9F5806420463946049500F0DD
:1015A00093FE48463946019500F08EFE0420CDE9B1
:1015B000010A48463946CDF80C8000F085FE4846C1
:1015C0002021012200F094FF30461021012200F07A
:1015D0008FFF20464FF48061012200F089FF4846CA
:1015E0000221002200F084FF4FF47A64019400BFCE
:1015F0000198411E019188B100BF0198411E0191DF
:1016000060B100BF0198411E019138B100BF01983F
:10161000411E019110B100BFEAE700BF48462021FA
:10162000002200F065FF01940198411E019188B1EC
:1016300000BF0198411E019160B100BF0198411E99
:10164000019138B100BF0198411E019110B100BF56
:10165000EAE700BF8F20FFF769FE06460020FFF78C
:1016600065FE074648462021012200F041FF4FF465
:101670007A6001900198411E019188B100BF0198E4
:10168000411E019160B100BF0198411E019138B126
:1016900000BF0198411E019110B100BFEAE700BFF1
:1016A00042F6C55242F6D050C0F6010242F6D95178
:1016B000C0F60100B8F1020F08BF0246C0F60101F2
:1016C000B8F1010F18BF114604A032463B4610F096
:1016D00019F807F001F906B0BDE8F0875B48334C14
:1016E0004953313030444C20444941475D20424900
:1016F0005442414E472070756C6C3D257320545800
:101700003D5B38462030305D2052583D5B253032FD
:101710005820253032585D0D0A0000002DE9F043B5
:1017200085B040F60009C4F2022948462021012272
:1017300000F0DEFE0A204FF00A0800F0B1FD8F270E
:101740000026484620210022ADF80E70ADF80C604E
:1017500000F0CEFE40F624400DF10E01C2F2000072
:1017600003AA0223CDF8008005F0F4FD05464846A3
:101770002021012200F0BCFE9DF80C009DF80F1006
:101780009DF80D409DF80E30CDE9001042F6F26054
:10179000C0F6010001212A4602940FF0B3FF002D8C
:1017A00008BF322C73D0052000F07AFD4846202176
:1017B0000022ADF80E70ADF80C6000F099FE40F616
:1017C00024400DF10E01C2F2000003AA0223CDF85D
:1017D000008005F0BFFD054648462021012200F0AB
:1017E00087FE9DF80C009DF80F109DF80D409DF8A8
:1017F0000E30CDE9001042F6F260C0F60100022181
:101800002A4602940FF07EFF002D08BF322C3ED0F6
:10181000052000F045FD8F20ADF80E00002548465C
:1018200020210022ADF80C5000F062FE40F624406A
:101830000A270DF10E01C2F2000003AA022300974D
:1018400005F088FD064648462021012200F050FEA2
:101850009DF80C009DF80F109DF80D70002E9DF85E
:101860000E3008BF3D46CDE9001042F6F260C0F6EA
:1018700001000321324602970FF044FF002E08BFFB
:10188000322D04D0052000F00BFD322D6ED148F230
:101890002100ADF8100048462021002200F028FE6B
:1018A00040F62440C2F2000004A902220A2305F0F7
:1018B00067FB054648462021012200F019FE3DB194
:1018C0005DA010F0BDFB4FF0FF3005B0BDE8F08328
:1018D0000A2000F0E5FC42F62070ADF81000484602
:1018E0002021002200F004FE40F62440C2F2000055
:1018F00004A902220A2305F043FB0546484620219D
:10190000012200F0F5FD5DB142F66070C0F6010005
:1019100010F096FB4FF0FF3005B0BDE8F08300BF3C
:101920002320ADF81000484620210022002700F0B7
:10193000DFFD40F62440C2F2000004A902220A237F
:101940000A2605F01DFB054648462021012200F02D
:10195000CFFDBDB142F68670C0F6010010F070FBFD
:101960004FF0FF3005B0BDE8F08300BF22A029464C
:1019700032220FF0C7FE00F071F84FF0FF3005B0D3
:10198000BDE8F083A020ADF81000484620210022D9
:10199000ADF8127000F0ACFD40F6244004A9C2F28C
:1019A00000000DF112020223009605F0D3FC05465B
:1019B00048462021012200F09BFD0DB100210DE0E1
:1019C0009DF813102F2909D142F6AC70C0F6010022
:1019D00010F036FB002005B0BDE8F08342F6E7507A
:1019E000C0F601000FF08EFE00F038F84FF0FF3027
:1019F00005B0BDE8F08300BF5B48334C495331303C
:101A000030444C5D20696E6974206661696C656460
:101A1000202857484F5F414D5F493D30782530328F
:101A2000582065787065637465643D307825303280
:101A300058290D0A000000005B48334C49533130EF
:101A400030444C5D20696E6974206661696C656420
:101A50002028424F4F54290D000000002DE9F04F7F
:101A60008BB043F2CA0040F60009C0F60100C4F290
:101A7000022910F0E5FA43F28F00C0F6010010F0E1
:101A8000DFFA4846202100F02DFD01460FF21060DC
:101A90000FF038FE8F20ADF81800002648462021B0
:101AA0000022ADF8166000F023FD40F6244A0A201B
:101AB0000DF11808C2F2000A0DF1160B0090504605
:101AC00041465A46022305F045FC0446484620217B
:101AD000012200F00DFD9DF818009DF8191042F646
:101AE000A9679DF816209DF817508DE80700C0F6ED
:101AF000010743F20F11C0F6010138460F222346B9
:101B000003950FF0FFFDA020ADF8180048462021F6
:101B10000022ADF8166000F0EBFC504641465A46F4
:101B200002230A25009505F015FC044648462021AD
:101B3000012200F0DDFC9DF818009DF819109DF8B9
:101B400016209DF817508DE8070043F2F101C0F60A
:101B5000010138462022234603950FF0D3FDA12032
:101B6000ADF81800484620210022ADF8166000F0BC
:101B7000BFFC504641465A4602230A25009505F00F
:101B8000E9FB044648462021012200F0B1FC9DF803
:101B900018009DF819109DF816209DF817508DE833
:101BA000070043F2FB01C0F601013846212223461B
:101BB00003950FF0A7FDA320ADF81800484620219B
:101BC0000022ADF8166000F093FC504641465A469C
:101BD00002230A25009505F0BDFB04464846202156
:101BE000012200F085FC9DF818009DF819109DF861
:101BF00016209DF817508DE8070043F20511C0F636
:101C0000010138462322234603950FF07BFDA720D0
:101C1000ADF81800484620210022ADF8166000F00B
:101C200067FC504641465A4602230A25009505F0B6
:101C300091FB044648462021012200F059FC9DF802
:101C400018009DF819109DF816209DF817508DE882
:101C5000070043F21811C0F6010138462722234637
:101C600003950FF04FFD0FF2604010F0E9F90420EA
:101C7000069002210120CDE90801052007910A9074
:101C800006A948464FF0040A00F01EFB012000F0B0
:101C900007FB0DF1180B0DF11608584641468DF85B
:101CA00018608DF81660FFF7ABFB9DF8181042F630
:101CB000626542F6D9549DF81670C0F60105C0F66B
:101CC00001040346009128462146012201970FF0A6
:101CD00019FD022000F0E4FA584641468DF81860DC
:101CE0008DF81660FFF78CFB9DF818109DF81670A4
:101CF0000346009128462146022201970FF002FD7B
:101D0000022000F0CDFA584641468DF818608DF853
:101D10001660FFF775FB9DF818109DF816700346C6
:101D2000009128462146032201970FF0EBFC022088
:101D300000F0B6FA0220CDF818A0CDE9070009900E
:101D40004FF0050A484606A9CDF828A000F0BCFAD5
:101D5000012000F0A5FA584641468DF818608DF82C
:101D60001660FFF74DFB9DF8181042F6D0549DF811
:101D70001670C0F601040346009128462146012250
:101D800001970FF0BFFC022000F08AFA5846414646
:101D90008DF818608DF81660FFF732FB9DF818106B
:101DA0009DF81670034600912846214602220197AD
:101DB0000FF0A8FC022000F073FA584641468DF857
:101DC00018608DF81660FFF71BFB9DF818109DF842
:101DD00016700346009128462146032201970FF012
:101DE00091FC022000F05CFA042006900220CDE96C
:101DF0000706CDE9090A484606A94FF0050A00F092
:101E000063FA012000F04CFA584641468DF81860FC
:101E10008DF81660FFF7F4FA9DF8181042F6C554D5
:101E20009DF81670C0F6010403460091284621462D
:101E3000012201970FF066FC022000F031FA5846AB
:101E400041468DF818608DF81660FFF7D9FA9DF8B5
:101E500018109DF81670034600912846214602226C
:101E600001970FF04FFC022000F01AFA5846414645
:101E70008DF818608DF81660FFF7C2FA9DF81810FB
:101E80009DF81670034600912846214640F62444EA
:101E90000322C2F2000401970FF034FC022000F08C
:101EA000FFF994A010F0CCF8042006900221012044
:101EB00008AA079182E8030406A9484600F004FA3C
:101EC00020468DF818608DF8166004F07DFF0246FC
:101ED00001280FD82046C4E9046604F08FFF0246AB
:101EE00040B9012000F0DCF906A80DF11601FFF75A
:101EF00087FA02469DF818309DF8167042F6226067
:101F000042F68751C0F60100C0F6010100970FF0BC
:101F1000F9FB022000F0C4F940F62444C2F20004A8
:101F200020468DF818608DF8166004F04DFF0246CB
:101F3000012812D800204FF08071C4E90401204626
:101F400004F05CFF024640B9012000F0A9F906A8A0
:101F50000DF11601FFF754FA02469DF818309DF86E
:101F6000167042F6226042F68D51C0F60100C0F6AE
:101F7000010100970FF0C6FB022000F091F940F636
:101F80002444C2F20004002620468DF818608DF823
:101F9000166004F019FF0246012811D84FF00070B6
:101FA000C4E90406204604F029FF024640B9012096
:101FB00000F076F906A80DF11601FFF721FA0246A6
:101FC0009DF818309DF8167042F6226042F6935143
:101FD000C0F60100C0F6010100970FF093FB02204C
:101FE000022500F05DF940F62444C2F200042046C8
:101FF0008DF818608DF8166004F0E6FE02460128A0
:1020000013D84FF000704FF08071C4E904012046EE
:1020100004F0F4FE024640B9012000F041F906A8A0
:102020000DF11601FFF7ECF902469DF818309DF806
:10203000167042F6226042F69951C0F60100C0F6D1
:10204000010100970FF05EFB022000F029F906F075
:1020500043FC0020FFF754FA0220FFF751FA042056
:10206000CDE906050120CDE9080505200A9006A95D
:10207000484600F029F942F6D270C0F601000FF090
:10208000DFFF43F23800C0F601000FF0D9FF42F63F
:102090003B70C0F601000FF0D3FF0BB0BDE8F08F2E
:1020A0005B48334C4953313030444C20444941471C
:1020B0005D2043532069646C65206C6576656C3DDA
:1020C00025750D0A000000005B48334C4953313040
:1020D00030444C20444941475D2048572D535049D6
:1020E0002057484F5F414D5F492073776565700DFC
:1020F000000000005B48334C4953313030444C20E1
:10210000444941475D2048572D535049206D6F6425
:10211000652073776565700D000000002DE9F041C2
:1021200082B0002800F08F800446A72040F600050A
:10213000ADF806000020C4F20225ADF804002846E0
:102140002021002200F0D4F940F624400A270DF1A6
:102150000601C2F2000001AA0223009705F0FAF876
:10216000064628462021012200F0C2F9002E6AD13D
:102170009DF8050000075EBF6FF0010002B0BDE8EA
:10218000F081A920ADF80600002728462021002272
:10219000ADF8047000F0ACF940F624404FF00A08A6
:1021A0000DF10601C2F2000001AA0223CDF8008061
:1021B00005F0D0F8064628462021012200F098F9C3
:1021C000002E40D19DF8050020212070AB20ADF8F5
:1021D000060028460022ADF8047000F089F940F6A8
:1021E00024400DF10601C2F2000001AA0223CDF83D
:1021F000008005F0AFF8064628462021012200F0B5
:1022000077F906BB9DF8050020216070AD20ADF880
:1022100006000020ADF804002846002200F068F90E
:1022200040F624400A270DF10601C2F2000001AA7F
:102230000223009705F08EF8064628462021012249
:1022400000F056F926B14FF0FF3002B0BDE8F08142
:1022500094F900109DF9050000EE101A94F9011090
:1022600003EE100A02EE101AB8EEC00A9FED0B1A28
:10227000B8EEC22AB8EEC33A20EE010A22EE012AD5
:1022800023EE011AA07084ED010A84ED022A84ED88
:10229000031A002002B0BDE8F08100BF00004344F3
:1022A000B0B5044600F02AF9054640F20400C2F237
:1022B00000000078611C18BF044400BF00F01EF944
:1022C000401BA042FAD3B0BD2DE9F04F81B00D689C
:1022D000002D00F00381804647F67F70C0F22F008A
:1022E00000EA98200027009000234FF0010E4FF0E5
:1022F000030AC4F2026740460BE000BF4FF0030A36
:102300000027C4F202670D68013335FA03F200F0CA
:10231000E5800EFA03F415EA0409F4D0B84525D097
:10232000D1F804C04CF01004122C55D16FF0030208
:1023300002EA53071C2202EA830647440F223D6A41
:1023400002FA06F40A69A54302F00F02B2402A43DA
:102350003A6202685C00D1F804C00AFA04F5AA43A4
:102360000CF0030505FA04F422433FE0386842F21A
:10237000F0224D68C0F60102A04302EBC30405F051
:1023800001059D40D4F804B0054352F833006FF0C6
:10239000030202EA5B041C223D60051902EA8B0479
:1023A0002F6A0F2202FA04F60B22B74302FA04F650
:1023B00037432F6207684FEA4B060AFA06F50222F6
:1023C000AF4302FA06F637430760D1F804C0BCF108
:1023D000120F10D938E000BF02685C000AFA04F559
:1023E000AA430CF0030505FA04F422439B4602605D
:1023F000BCF1120F28D80EFA0CF212F0061F1FD0F3
:102400004FEA4B050324826804FA05FACC6822EAF5
:102410000A02AC402243826042680EFA0BF4A243E7
:102420004FEA1C1404FA0BF42243BCF1030F426080
:102430003FF464AF6FEA0A044FF0030A09E000BFFB
:10244000BCF1030F3FF45CAF4FEA4B050AFA05F20B
:10245000D443C2688E68224006FA05F422435FEA3C
:10246000CC07C2607FF54CAF42F2000423F00302B8
:10247000C4F202641827224407EAC307166E0F2528
:10248000BD40AE43009D05FA07F737431766226843
:102490004F6842EA0906FD0258BF22EA0906266093
:1024A0006268BD0242EA090658BF22EA0906666070
:1024B000D4F88420BD0342EA090658BF22EA09067F
:1024C000C4F88460D4F88020FF0342EA090658BFAC
:1024D00022EA0906C4F8806012E700BF01B0BDE837
:1024E000F08F00000069084018BF0120704700000D
:1024F0001823002A08BF2823C150704745F2E42062
:10250000C2F2000000687047B0B540F20045C4F266
:1025100003050220E860286820F001002860FFF72A
:10252000EDFF2968C90701D10020B0BD044607E0CE
:102530002868C0071CBF0320B0BD2868C007F3D0BF
:10254000FFF7DCFF001B0228F2D2F6E770B540F27D
:102550000042C4F203021368DB071BD1203252F899
:1025600020301B0416D4D1E90236D1E900EC5D42DB
:1025700005EA5E542D04E4B244EA432305EA5C15FF
:10258000096933432B43194341F4004142F82010B9
:10259000002070BD012070BD40F2040045F2E4212E
:1025A000C2F20000C2F2000100780A68104408601C
:1025B0007047000080B542F20000C4F202000168DA
:1025C00041F480710160032000F0C8F802F046FD7C
:1025D00040F62041C4F20261096842F2081201F09B
:1025E0000F01C0F60102515CC84040F21401C2F272
:1025F000000108600F2000F009F800281CBF01202E
:1026000080BD00F055F8002080BD0000B0B588B056
:1026100040F69C41C4F202610A68044642F010028E
:102620000A60096802A801F010010291029901A94B
:1026300002F078FC02F0B2FC4DF68361C4F21B316B
:10264000A0FB01014FF0FF3000EB914140F6B44098
:1026500041F20003C2F2000040F2E732C4F200038C
:102660000025C0E90031C0E90252056105F090F88B
:102670000546B0B940F6B440C2F2000005F0BCF81F
:10268000054670B90F2C0BD83120214600220025B9
:1026900000F038F840F20800C2F20000046000E0E8
:1026A0000125312000F01EF8284608B0B0BD00001A
:1026B00080B582B040F69440C4F20260016841F0F7
:1026C00004010160006800F004000190019800F02E
:1026D000BFFF6FF001000F21002202B0BDE8804073
:1026E00000F010B8002848BF704700F01F01012219
:1026F00002FA01F14EF200124009CEF2000242F855
:102700002010704710B54EF60C5CCEF2000CDCF8D1
:102710000030C3F3022E8EF00704042C28BF0424DB
:10272000BEF103034FF0FF3E38BF00230EFA04F45E
:10273000A14399400EFA03F39A4300F00F03043BC0
:102740001143634409010C3300F16042B0F1FF3FD3
:10275000C8BF02F56443197010BD00004EF60C515D
:10276000CEF200010A684FF6FF031A4060F30A2216
:1027700042F0806040F0FD700860704701220168FF
:10278000C0F8D824002280F8CC24886940F000608A
:102790008861486D40F0805040F0030200204A6597
:1027A000704700007047000070470000704700004D
:1027B00070470000704700002DE9F04F89B00568B0
:1027C0008246284609F0DAFD10B109B0BDE8F08F65
:1027D000DAF8000009F000FE0028F6D0D5F8080865
:1027E000C0F30D21DAF80000CAF8D41409F0F4FDA2
:1027F0000146DAF80000890703D5416901F00201BA
:10280000416105F50061039109F0E6FD0146DAF842
:102810000000C90604953FD5816921F0100181614E
:102820002C6AC4F3434004F00F0506281CD002288C
:102830002BD147F6F070044027D005EBC5002209E4
:102840000AEB80050498D5F8601209F0C9FDD5F8A7
:102850006002D5F8681200EB141001EB1411C5F8F2
:102860006002C5F8681210E004980AF29C41082240
:1028700009F0B6FD05EBC500C4F30A110AEB8000B0
:10288000D0F868221144C0F86812DAF800008169B3
:1028900041F010018161049D09F09EFD0003CDF817
:1028A00020A040F10B81DAF8000009F073FD002848
:1028B00000F0048106460AF29C400AF51D740027C8
:1028C0004FF4306B4FF00008079020E005EB0B0051
:1028D000022181605FEA8A6042BF05EB0B00202184
:1028E00081605FEA8A40DDF820A042BF05EB0B0063
:1028F0004FF400518160B7EB560F08F101084FEA21
:1029000056060BF1200B04F1240400F0D780F007E9
:10291000F1D0DAF800005FFA88F9494609F054FD71
:102920008246C00760D005EB0B0001218160089F43
:1029300038680BEB0001036C8A68BF79012F19D14D
:1029400017072BD4970649D412F0280F4FF0000731
:102950004AD1AC4643F20B05C4F65475AB42C0F005
:102960008F8012F4004200F08B804FF400408860AA
:10297000654639E043F20B07C4F65477FF37BB4294
:102980001CD110042CD4900644BF2020886000275E
:1029900008984946FFF70CFF26E000BF43F20B0002
:1029A000C4F6547083424FF000071DD312F4004068
:1029B0001CBF4FF40040886016E000BFB8F1000F64
:1029C00007D10899D1F8641219B9079A002109F0C2
:1029D000ADFB08984946FFF7EBFE04E0202001E03C
:1029E0004FF40040886000275FEA0A7028D505EBA5
:1029F0000B0008218160089843F20B020068C4F6BE
:102A00005472056C58448168571EBD4205D911F4B3
:102A100000411CBF4FF400418160089800F072FD36
:102A2000BD42049D4FF000070AD90898807901281B
:102A300006D10898079A0068012109F077FB00BFCA
:102A40005FEACA6042BF05EB0B00102181605FEABC
:102A50008A707FF53FAF6869000604D5039948681E
:102A600040F48060486014F81D0C01287FF42EAFFC
:102A70000898494604F81D7C00F092FB26E700BF49
:102A800022680969B8F1000F6FF3DF41A2EB010181
:102A9000654644F80C1C7FF47BAF089BD3F8642296
:102AA00032B1D3F860020844C3F8600270E700BF97
:102AB000079A012109F03AFB6AE700BFDAF8000043
:102AC00009F08AFC400340F1EB80DAF8000009F0DD
:102AD00059FC002800F0E48005F5106102910AF22B
:102AE0009C410027019114E0069E07F00F02D6F8E2
:102AF0003418012303FA02F29143C6F8341800BFD8
:102B00000021B1EB500F07F101074FEA500000F030
:102B1000C780C107F4D00590DAF80000F9B2079138
:102B200009F040FC029E0446C0070BD1200733D4B5
:102B3000E00637D460063BD4A0073FD420060598B2
:102B4000DED555E0039A07F00F00516B012303FA1D
:102B500000F021EA000006EB471150638B609AF801
:102B60000600012812D107EBC7000AEB8000D0E96C
:102B70000712114401624FB9DAF8240030B9DAF8CB
:102B80000000019A012109F0D1FA00BF07995046CF
:102B9000FFF70CFE2007CBD506EB4710082181601C
:102BA000E006C7D506EB4710102181606006C3D54B
:102BB00006EB471040218160A007BFD52846394663
:102BC00009F06CFB07EBC7000AEB800010F8171F39
:102BD000012905D1002101700799504600F0DEFA65
:102BE00006EB471002218160200605987FF588AF2B
:102BF00007EBC7010AEB810BD94659F8242FC846C9
:102C000058F8046FB242FFF47BAFDAF800505BF87B
:102C10001C3F05EB471C0695DCF81859911B99429F
:102C200088BF1946ADB20331B5EB910F28BFB24250
:102C300004D8049DB2423FF663AF55E70BF1040A96
:102C4000DAF800100CF510650898941B9C42867900
:102C500088BF1C46DDE90602A3B2009609F0E6FC37
:102C6000DAF80000E31C0119D8F80000CAF80010D7
:102C70000619C8F80060AA6992B2B2EB930FD9F8AE
:102C8000002028BFB24203D9DBF80030DCE700BFE8
:102C9000DDF820A0DDE90450B2423FF631AF23E772
:102CA000DAF8000009F098FB002815D4DAF80000E3
:102CB000039C09F091FB00052DD4DAF8000009F01F
:102CC0008BFB000137D4DAF8000009F085FBC00463
:102CD00043D4DAF8000058E1039C606820F001005A
:102CE00060609AF8CC04012808D100208AF8CC044E
:102CF00050460021FFF756FD03E000BF504600F0AC
:102D0000FDFBDAF80000416901F00041416109F082
:102D100063FB0005D1D5A068C0071CBF504600F07A
:102D2000F3FBDAF80000416901F40061416109F048
:102D300053FB0001C7D5DAF80000416901F00061DA
:102D400041619AF8CC1409B3504600F0DDFBDAF883
:102D5000000009F041FBC004BBD56068102120F0E1
:102D600001006060DAF8000009F098FA9AF80400AF
:102D7000002800F0DC80012898BF0120411E0329B3
:102D800000F0030C16D2002180E000BF01218AF878
:102D9000CC14406D0121C0F38300CAF8D004504622
:102DA000FFF700FDDAF8000009F016FBC00490D52B
:102DB000D3E700BF00F0FC0E05F536634FF6A056D2
:102DC0004FF6C0554FF6E0544FF6006000214FF625
:102DD0007F37CFF6FF76CFF6FF75CFF6FF74CFF6CD
:102DE000FF7000BFA3F5187297609A59043122F45E
:102DF00000129A5143F8587C53F8602C8E4522F407
:102E0000001243F8602C53F8602C42F0006243F843
:102E1000602CA3F5107297605A5922F400125A518F
:102E200043F8387C53F8402C22F4001243F8402C2D
:102E300053F8402C42F0006243F8402CA3F508728E
:102E400097601A5922F400121A5143F8187C53F86B
:102E5000202C22F4001243F8202C53F8202C42F0AE
:102E6000006243F8202CA3F5007297601A5822F4F0
:102E700000121A509F601A6822F400121A601A6831
:102E800042F000621A6003F18003ABD1DDE9034533
:102E9000BCF1000F4BD005F5106000EB41124FF66E
:102EA0007F334F019360C65905F5306202EB41153F
:102EB00026F40016C651AB60D659BCF1010F26F4BA
:102EC0000016D651D65946F00066D651039C2ED036
:102ED0004F1C00EB47167D01B360465902EB4717C4
:102EE00026F400164651039CBB605359BCF1020FF7
:102EF00023F400135351535943F00063535116D038
:102F0000023100EB41174FF67F364B01BE60C758C8
:102F100002EB411127F40017C7508E60039CD05874
:102F200020F40010D050D05840F00060D050E0693C
:102F300040F00110E0619AF80F0048B1D4F8840025
:102F400040F00B00C4F8840004F1440007E000BF27
:102F5000606942F22B010843606104F110000168CE
:102F60000AF29C4241F00B010160206820F4FE60EF
:102F70002060DAF800009AF8061009F0D7F8DAF8BD
:102F80000000416901F48051416109F025FA0146D0
:102F9000DAF8000089041AD508F08EFEDAF800008D
:102FA00009F0DEF9DAF800408AF8070001F0E0FFE6
:102FB0009AF807200146204609F0A8FA504600F08A
:102FC0009BFADAF80000416901F40051416109F00F
:102FD00003FA000706D4DAF8000009F0FDF900064C
:102FE0000DD435E0504600F08BFADAF80000416964
:102FF00001F00801416109F0EFF9000628D50499B4
:10300000886920F0800088619AF8040002281FD3A4
:103010000AF27B24012504E00135854204F12404F1
:1030200016D221780129F7D105F00F0000EBC0007E
:103030000AEB80022806DAF8000002F1140158BFFA
:1030400002F5157109F0A0F89AF80400E4E700BF52
:10305000DAF8000009F0C0F9C0024DD4DAF8000037
:1030600009F0BAF980027CD59AF80400022829D325
:1030700004990AF51F7201F532610123012705E069
:1030800001372031874202F124021BD20E68B6F1CB
:10309000FF3FF5DC1578012DF2D1DAF8D45485EA3A
:1030A0001646F607ECD1049D02F8013CAE6946F0E5
:1030B0008006AE616E693606E2D40399486840F432
:1030C00000704860DAF80000416901F400114161C4
:1030D00009F082F940004AD55046FFF765FBDAF85F
:1030E0000000416901F08041416109F075F9400734
:1030F00044D4FFF76ABB00BF9AF80400022825D326
:1031000004990AF13C0501F512640126012705E046
:1031100001372034874205F1240517D22168B1F127
:10312000FF3FF5DC29780129F2D107F00F0000EB11
:10313000C00005F8016C0AEB8001DAF800001431D8
:1031400009F022F89AF80400E2E700BFDAF800007C
:10315000416901F48011416109F03EF980023FF5B7
:1031600083AFDAF8000009F037F94000B4D4DAF898
:10317000000009F031F940077FF527ABDAF80000CD
:103180004468610704D55046FFF714FBDAF80000E5
:1031900041682143416009B0BDE8F08F70470000ED
:1031A00070470000F0B581B0002800F02781044688
:1031B000056890F8950428B9002084F89404204606
:1031C00000F032F900210320C4F204218D4284F87A
:1031D000950404BF0020A071206808F09FFF94E8C8
:1031E0000F00267C009608F077FD002840F0038150
:1031F0002068002109F054F9002840F0FC80217972
:10320000002900F0F180A1F1010C01F0030EBCF1E6
:10321000030F4FF0000345D301F0FC0204F19A00C4
:10322000012600256F1C00F8627C20F8487CAF1C4A
:1032300000F8865C20F86C5C00F83E7C20F8247C6A
:10324000EF1C043500F8856C00F8823C40F87E3CA9
:1032500040F87A3C40F8763C00F8616C00F85E3C3F
:1032600040F85A3C40F8563C40F8523C00F83D6C5F
:1032700000F83A3C40F8363C40F8323C40F82E3CEE
:1032800000F8196C00F81A7C078000F8163C40F82A
:10329000123C40F80E3C40F80A3CAA4200F1900073
:1032A000C0D12B46BEF1000F2CD003EBC30001228E
:1032B00004EB80050020BEF1010F6A752B75EB85CC
:1032C0002876C5E9070068621CD05D1C05EBC506C1
:1032D000BEF1020F04EB860672753575F585307602
:1032E000C6E9070070620DD0981C00EBC0020123F4
:1032F00004EB82021075D085002053751076C2E968
:1033000007005062BCF1030F4FF0000234D301F00C
:10331000FC0004F5347100235F1C01F8587C9F1CED
:1033200001F87C3C01F8347CDF1C043301F87B2C71
:1033300001F8782C41E91D2241F86C2C01F8572C3A
:1033400001F8542C41E9142241F8482C01F8332C9F
:1033500001F8302C41E90B2241F8242C01F80F2C04
:1033600001F8107C01F80C2C41E902220A60984215
:1033700001F19001D0D11A46BEF1000F34D002EB1A
:10338000C200BEF1010F04EB80014FF0000081F894
:10339000550281F8542281F85802C1E99700C1F81A
:1033A000640221D0511C01EBC103BEF1020F04EBFA
:1033B000830383F8550283F8541283F85802C3E953
:1033C0009700C3F864020FD0901C00EBC0010022EC
:1033D00004EB810181F8552281F8540281F85822CA
:1033E000C1E99722C1F8642294E80F00277C009776
:1033F00008F004FD30B1022084F89504012001B0EA
:10340000F0BD00BF00206074012084F89504207B8B
:10341000012804BF2046FFF7B1F9206808F0DEFC60
:10342000002001B0F0BD000070B5BAB0054602A89A
:10343000002600240830C0213996CDE93766CDE951
:103440003566C4F20224FCF75FFF286804F50031FA
:10345000884201D03AB070BD4FF48010029002A8AB
:1034600003962A9601F0B2F8002818BFFDF7EAF992
:1034700040F68C45C4F20265286835A940F0010089
:103480002860286800F00100019001984FF4C050B6
:103490003590022036900020CDE937000A2039907F
:1034A0002046FEF711FF286840F480402860286815
:1034B00000F4804001900198A868400710D4A868E3
:1034C00040F00400A860A86800F004000190019892
:1034D00000F0BEF8A86820F00400A86002E000BF79
:1034E00000F0B6F8492007210022FFF70BF9492028
:1034F000FFF7F8F83AB070BD704700007047000061
:1035000070470000704700007047000080B540F62B
:103510000C0CC4F2026CDCF8301001F44031814232
:103520000CD1B0F1011FC0F07F80DCF8000040F446
:103530008020CCF80000002080BD00BFDCF8001027
:10354000B0F5803F21F4E02141EA000140F214008F
:1035500088BF41F48021CCF80010C2F2000000685E
:1035600041F25971CDF2B711A0FB01014FEA913E32
:10357000734600BFDCF80010B3F1FF3218BF012220
:10358000581C22D011F400401FD1DCF80010002B91
:103590001A4618BF012218D011F4004015D1DCF8EA
:1035A00000105A1E18BF0122012B0ED011F400404A
:1035B0000BD1DCF800109A1E18BF0122022B04D098
:1035C00011F40040A3F10403D4D0A2B3DCF830100E
:1035D0001EF1010224D011F4004021D1DCF830109A
:1035E000BEF1000F1DD011F400401AD1DCF83010EC
:1035F000BEF1010F1AD011F4004017D1DCF83010E1
:10360000BEF1020FAEF1040203D011F40040964661
:10361000DCD002F1020EBEF1000F05D10BE000BFBD
:103620009646BEF1000F06D0002080BDAEF1010E1F
:10363000BEF1000FF8D1032080BD000040F62C0041
:10364000C4F20260016841F00101016070470000AE
:1036500040F61000C4F20260016841F08051016040
:103660007047000040F63C00C4F20260006800F4BD
:1036700040307047B0B540F6284EC4F2026EDEF816
:103680000C50DEF80030DEF80010DEF80020DEF826
:103690001040C2F30012C4F3CC04C1F3032104FBB5
:1036A00002F203F0030300EE102A6FF35F25B8EE79
:1036B000400A012B01F1010C66D0032B18BF022B2D
:1036C00062D101EE10CADEF80C10B8EE411A9FED7F
:1036D0004D2A6FF35F2182EE011A02EE101A9FED60
:1036E0004A3AB8EE422A20EE030A30EE020AB7EE5A
:1036F000002A30EE022ADEF8001021EE020AC90389
:1037000071D5DEF80C10B7EE002AC1F3462101EEA8
:10371000101AB8EE411A31EE021A80EE011ABCEE10
:10372000C11A11EE102A0260DEF80010890360D57C
:10373000DEF80C10B7EE002AC1F3064101EE101AB4
:10374000B8EE411A31EE021A80EE011ABCEEC11A2F
:1037500011EE102A4260DEF8001049034FD5DEF862
:103760000C10B7EE002AC1F3066101EE101AB8EE94
:10377000411A31EE021A80EE010ABCEEC00A10EEC8
:10378000101A8160B0BD00BF5EF8201C090203D48E
:10379000DEF8CC100B0401E05EF8203C42F27032FF
:1037A000190FC0F6010202EB810102EE10CA91ED81
:1037B000001AB8EE422AB8EE411A9FED133A81EE94
:1037C000022A01EE105A20EE030AB8EE411A30EE3A
:1037D000010AB7EE001A30EE011ADEF8001021EEF1
:1037E000020AC9038DD400220260DEF800108903AA
:1037F0009ED400224260DEF800104903AFD40021BD
:103800008160B0BD0024744B00000039B0B540F6B3
:103810002C4EC4F2026EDEF81050DEF80030DEF8F6
:103820000010DEF80020DEF81440C2F30012C4F3EA
:10383000CC04C1F3032104FB02F203F0030300EE06
:10384000102A6FF35F25B8EE400A012B01F1010C3D
:1038500066D0032B18BF022B62D101EE10CADEF82E
:103860001010B8EE411A9FED4D2A6FF35F2182EEE2
:10387000011A02EE101A9FED4A3AB8EE422A20EEE3
:10388000030A30EE020AB7EE002A30EE022ADEF812
:10389000001021EE020AC90371D5DEF81010B7EE50
:1038A000002AC1F3462101EE101AB8EE411A31EE9A
:1038B000021A80EE011ABCEEC11A11EE102A026043
:1038C000DEF80010890360D5DEF81010B7EE002A8C
:1038D000C1F3064101EE101AB8EE411A31EE021A98
:1038E00080EE011ABCEEC11A11EE102A4260DEF819
:1038F000001049034FD5DEF81010B7EE002AC1F3CF
:10390000066101EE101AB8EE411A31EE021A80EE8D
:10391000010ABCEEC00A10EE101A8160B0BD00BFF3
:103920005EF8241C090203D4DEF8C8100B0401E081
:103930005EF8243C42F27032190FC0F6010202EB2D
:10394000810102EE10CA91ED001AB8EE422AB8EEDB
:10395000411A9FED133A81EE022A01EE105A20EE31
:10396000030AB8EE411A30EE010AB7EE001A30EE43
:10397000011ADEF8001021EE020AC9038DD40022DC
:103980000260DEF8001089039ED400224260DEF857
:1039900000104903AFD400218160B0BD0024744BF6
:1039A00000000039B0B540F6304EC4F2026EDEF8C9
:1039B0001450DEF80030DEF80010DEF80020DEF8EB
:1039C0001840C2F30012C4F3CC04C1F3032104FB7A
:1039D00002F203F0030300EE102A6FF35F25B8EE46
:1039E000400A012B01F1010C66D0032B18BF022BFA
:1039F00062D101EE10CADEF81410B8EE411A9FED44
:103A00004D2A6FF35F2182EE011A02EE101A9FED2C
:103A10004A3AB8EE422A20EE030A30EE020AB7EE26
:103A2000002A30EE022ADEF8001021EE020AC90355
:103A300071D5DEF81410B7EE002AC1F3462101EE6D
:103A4000101AB8EE411A31EE021A80EE011ABCEEDD
:103A5000C11A11EE102A0260DEF80010890360D549
:103A6000DEF81410B7EE002AC1F3064101EE101A79
:103A7000B8EE411A31EE021A80EE011ABCEEC11AFC
:103A800011EE102A4260DEF8001049034FD5DEF82F
:103A90001410B7EE002AC1F3066101EE101AB8EE59
:103AA000411A31EE021A80EE010ABCEEC00A10EE95
:103AB000101A8160B0BD00BF5EF8281C090203D453
:103AC000DEF8C4100B0401E05EF8283C42F27032CC
:103AD000190FC0F6010202EB810102EE10CA91ED4E
:103AE000001AB8EE422AB8EE411A9FED133A81EE61
:103AF000022A01EE105A20EE030AB8EE411A30EE07
:103B0000010AB7EE001A30EE011ADEF8001021EEBD
:103B1000020AC9038DD400220260DEF80010890376
:103B20009ED400224260DEF800104903AFD4002189
:103B30008160B0BD0024744B0000003980B584B0B2
:103B4000024643F6FF7300209B1A70EB01034FDA25
:103B50004FF6FF73C0F21F039B1A70EB010380F254
:103B6000B5806FF07E439B1A4FF0000C7CEB010395
:103B7000C0F222814FF6FF73C0F27F039B1A7CEBE9
:103B80000103C0F2A98182F400130B4300F0EC8220
:103B900082F48002114340F0B48440F60041C4F244
:103BA0000261D1F8E00000F44040B0F5804F00F031
:103BB000B383002800F08C830A68B0F5004F03D16E
:103BC00012F4806240F061840A68B0F5404F4FF013
:103BD000000040F0968412F0200200F09284886881
:103BE000000200F1DD84D1F8F400000400F0E3BC31
:103BF000D2F17F0370EB0103C0F2AE80013A61F1B4
:103C00000001D2F13F034FF0000373EB0101C0F05C
:103C10007884DFE812F04100E5017604FF017604C4
:103C20007604760419027604760476047604760423
:103C300076047604330276047604760476047604F9
:103C400076047604760476047604760476047604A4
:103C5000760476044F0276047604760476047604BD
:103C60007604760476047604760476047604760484
:103C70007604760476047604760476047604760474
:103C80007604760476047604760476047604760464
:103C9000760476047F0200BF40F60040C4F2026062
:103CA000D0F8E01001F00301012900F0358300296C
:103CB00000F02E830268022903D112F4806240F0E2
:103CC000E483D0F8F000032900F036BC4FF6FF7310
:103CD000C0F201039B1A4FF0000C7CEB010380F251
:103CE00099804FF6FF73C0F207039B1A7CEB010328
:103CF000C0F2168182F400330B4300F0538282F449
:103D00008022114340F0FD8340F60040C4F202607F
:103D1000D0F8F010D0F8F02001F44071B1F5807FB8
:103D200003D112F0020240F05781D0F8F020B1F533
:103D3000007F03D112F0006240F06282006810F44C
:103D400000301CBF4AF22010C0F20700B1F5407FDE
:103D500018BF002004B080BD40F2FF339B1A4FF023
:103D6000000C7CEB010380F2878040F6FF739B1A06
:103D70007CEB0103C0F2F88082F480630B4300F017
:103D80002B8282F40062114340F0BB8340F6004076
:103D9000C4F20260D0F8E81011F4407100F03483EE
:103DA000D0F8F020B1F5807F40F0778112F000620A
:103DB00040F0268271E100BF6FF078439B1A7CEBE4
:103DC0000103C0F2EF8082F000730B4300F0228207
:103DD00082F08062114340F0948340F60040C4F2C8
:103DE0000260D0F8E410C1F30151DFE811F0950250
:103DF0000500DD02E50200BF0168890640F1A783E6
:103E00008168090200F1B683D0F8F400000400F0E4
:103E1000D2BB00BF82F480430B4300F0138282F4D4
:103E200000430B4300F02E8282F48032114340F0B5
:103E3000688340F60041C4F20261D1F8E40000F06A
:103E40000702042A00F283834BF68030DFE812F089
:103E50002E021402BE015903060000BF0868800646
:103E600040F175838868000200F19C83D1F8F4006A
:103E7000000400F0A0BB00BF82F080030B4300F001
:103E8000198282F480730B4300F0268282F4007260
:103E9000114340F0368340F60040C4F20260D0F88F
:103EA000E81011F4406100F0BB82D0F8F020B1F5C9
:103EB000806F03D112F0006240F0A2810268B1F578
:103EC000006F03D112F4806240F0DF82D0F8F0007E
:103ED000B1F5406F30E300BF82F400030B4300F004
:103EE0000B8282F08072114340F00B8340F6004059
:103EF000C4F20260D0F8E010C1F30141DFE811F034
:103F0000E8010C025A0204000168890640F11F838F
:103F10008168090200F13083D0F8F40000044AE31C
:103F200082F400230B4300F0FB8182F480121143E2
:103F300040F0E78240F60040C4F20260D0F8E010A2
:103F4000C1F38161DFE811F024013802300204007E
:103F50000168890640F1FB82816809025ABFD0F8E6
:103F6000F4000004806826E382F480530B4300F0E1
:103F7000EB8182F40052114340F0C38240F60041CD
:103F8000C4F20261D1F8E400C0F34212042A00F244
:103F9000DE824BF68030DFE812F0310269016F01FA
:103FA000B4024F0282F000630B4300F0E98182F01B
:103FB0008052114340F0A58240F60041C4F20261F4
:103FC000D1F8E800D1F8F02010F4004040F0FA8178
:103FD00012F0020200F0F6814FF4004004B080BD00
:103FE00040F60040C4F20260D0F8E01001F00C018D
:103FF000042900F09181002900F06A8102680829F3
:1040000003D112F4806240F04082D0F8F0000C2915
:1040100092E200BF40F60040C4F20260D0F8E01027
:1040200001F03001102900F07781002900F0508163
:104030000268202903D112F4806240F02682D0F871
:10404000F000302978E200BF40F60040C4F2026080
:10405000D0F8E01001F0C001402900F05D81002996
:1040600000F036810268802903D112F4806240F0AA
:104070000C82D0F8F000C0295EE200BF40F600409C
:10408000C4F20260D0F8E01001F44071B1F5807F15
:1040900000F04281002900F01B810268B1F5007F29
:1040A00003D112F4806240F0F081D0F8F000B1F555
:1040B000407F41E240F60041C4F20261D1F8E800DD
:1040C00000F00700012800F02781002800F010818F
:1040D0000A68022803D112F4806240F0D681D1F838
:1040E000F020032803D112F002027FF475AF0A68B2
:1040F00004284FF0000040F0048212F0200200F08B
:1041000000828868000200F15582D1F8F4000004B2
:1041100051E200BF40F60041C4F20261D1F8E00074
:1041200000F44060B0F5806F00F0F680002800F0E9
:10413000CF800A68B0F5006F03D112F4806240F0BE
:10414000A4810A68B0F5406F4FF0000040F0D981BB
:1041500012F0200200F0D5818868000200F11E8272
:10416000D1F8F400000426E240F60040C4F20260F8
:10417000D0F8E410490400F17F80D0F8E010C1F3DA
:104180008161DFE811F0050019011101E10100BFB3
:10419000006846F600418004C0F2DC2101EAE070CC
:1041A00004B080BD40F60041C4F20261D1F8E800DD
:1041B000C0F30242042A00F2CA814BF68030DFE8E5
:1041C00012F075005B000500A001AD0101A8FFF72A
:1041D000E9FB029804B080BD40F60040C4F20260E2
:1041E000D0F8E01011F4402100F07280D0F8F020F7
:1041F000B1F5802F40F0428112F0006200F03E8164
:10420000D0F8F000C0004FF0FA0058BF4FF4FA4069
:1042100004B080BD40F60040C4F20260D0F8E8105F
:10422000C1F3C101DFE801F06478C60201688906C4
:1042300040F18D818168090200F1A081D0F8F4007D
:104240000004B8E140F60041C4F20261D1F8E40094
:10425000C0F30222042A00F27A814BF68030DFE8B4
:1042600012F0CD0005000B005001EB0001A8FFF794
:1042700099FB019804B080BD01A8FFF7FBF90198F4
:1042800004B080BD40F60041C4F20261D1F8E800FC
:10429000C0F30232052A00F22781DFE812F007009E
:1042A0003D001F0125012501350100BF00F060FE22
:1042B00004B080BD40F60041C4F20261D1F8E000D4
:1042C00000F44050B0F5805F26D0002840F0BE805A
:1042D00000F064FE04B080BD40F60040C4F202600D
:1042E000D0F8E810C1F38111DFE801F0021664D6BE
:1042F00000F094FE04B080BD40F60040C4F20260BD
:10430000D0F8E010C1F30151DFE801F0020654D00B
:1043100000F064FE04B080BD00F0A0FE04B080BDDB
:1043200040F60040C4F20260D0F8E410026811F4D4
:10433000405155D112F4005252D046F60040C0F21E
:10434000DC2004B080BD00BF40F60040C4F2026033
:10435000D0F8E410026811F4006103D112F4806215
:1043600040F09380006810F480601CBF41F2002090
:10437000C0F27A00002908BF084604B080BD00BF23
:1043800040F60041C4F20261D1F8E000096810F083
:10439000407002D111F4003177D1B0F1007F2DD0FF
:1043A000B0F1807F40F0D38001A8FFF763F9029855
:1043B00004B080BD006840E001A8FFF727FA02982A
:1043C00004B080BDD1F8F02000284FF0000018BFE5
:1043D00012F0006200F09580D1F8F00012E700BF03
:1043E0000268B1F5805F6BD112F4005268D043F2DD
:1043F0000060C0F26E1004B080BD00BF01A8FFF7DE
:1044000005FA019804B080BD0168890640F19F80DB
:104410008168090200F1AA80D0F8F4000004CAE023
:104420000168890640F193808168090200F1A0804B
:10443000D0F8F4000004BEE0086842F200414005F4
:10444000C0F2F40101EAE07004B080BD0A68B0F582
:10445000005F02D112F4806217D10A68B0F5405FA4
:104460004FF000004DD112F020024AD088680002BF
:1044700000F19A80D1F8F40000049CE00268B1F5E4
:10448000002F55D112F4806252D042F20040C0F2A7
:10449000F40004B080BD00BF0168890657D581686B
:1044A00009026DD4D0F8F400000484E001688906A4
:1044B0004DD58168090265D4D0F8F40000047AE093
:1044C000006810F480601CBF42F20040C0F2F400AB
:1044D000B1F5005F18BF002013E000BF01A8FFF78F
:1044E00095F9039804B080BD00F4E0420B6842F2F5
:1044F0000040B2F5405FC0F2F4002BD113F400335A
:1045000028D004B080BD00BF086880061FD5886829
:10451000000241D4D1F8F40000044CE008688006A1
:1045200015D58868000241D4D1F8F400000442E0B7
:10453000D0F8F000B1F5402F00F002024FF000007B
:1045400008BF900304B080BD016889061CD4002018
:1045500004B080BD096811F4806118BF0146B2F54E
:10456000804F18BF0021084604B080BD806822E05B
:10457000806820E080681EE080681CE080681AE0A7
:10458000806818E0806816E08168090210D4D0F8CD
:10459000F40000040FE000BF88680CE088680AE0BF
:1045A000886808E0886806E0886804E0886802E0B7
:1045B000806800E08868C0F3036042F27031C0F6A2
:1045C000010151F8200004B080BD00002DE9F04F3A
:1045D00081B00446006840F6E04BC107C4F2026BAC
:1045E00020D1810728D4410730D4010738D4C1062F
:1045F00040D4810648D4410650D4010658D4C105A0
:1046000060D4410268D4810570D4410579D4010594
:1046100000F1828040F628488004C4F2026800F16C
:104620008A80B4E0DBF80010226D21F00301114311
:10463000CBF800108107D6D5DBF80010626D21F0B1
:104640000C011143CBF800104107CED5DBF8001068
:10465000A26D21F030011143CBF800100107C6D53F
:10466000DBF80010E26D21F0C0011143CBF800101F
:10467000C106BED5DBF80010226E21F44071114353
:10468000CBF800108106B6D5DBF80810626E21F079
:1046900007011143CBF808104106AED5DBF8001036
:1046A000A26E21F440611143CBF800100106A6D59B
:1046B000DBF80010E26E21F440511143CBF80010FA
:1046C000C1059ED5DBF80810226F21F0C00111430F
:1046D000CBF80810410296D5DBF80010626F21F488
:1046E00040411143CBF8001081058ED5DBF808104E
:1046F000A26F21F440611143CBF8081041057FF50A
:1047000086AFDBF80010E26F21F440211143CBF8B3
:10471000001001057FF57EAFDBF80810D4F880208B
:1047200021F440711143CBF8081040F6284880046A
:10473000C4F202682BD5D4F890004FEA7011042916
:104740000CD8DFE801F0030D171D1D0004F108006F
:1047500005F012FD0646D8B908E000BF012617E0B3
:1047600004F12C0005F084FD064688B9D4F89000C9
:1047700006E000BFD8F8001041F48031C8F80010FE
:10478000DBF8041021F0E0010843CBF80400002618
:104790006078400602D4374638E000BFD4F8940071
:1047A0004FEA302004280BD83746DFE800F0030F2B
:1047B0001B14140004F1080005F0DEFC0AE000BF41
:1047C000012701256078000624D449E004F12C007B
:1047D00005F04EFD07463D4677B16078000619D4D6
:1047E0003EE000BFD8F80000374640F48030C8F8FB
:1047F0000000002F3D46F0D1DBF80400D4F89410FF
:1048000020F4E06008430027CBF8040035466078C8
:10481000000625D5D4F8A8004FEA3030052807D87F
:1048200002280BD03E468FB1A078C0071CD139E0DA
:1048300001270126A078C00716D133E004F1080053
:1048400005F09AFC0746002F3E46EDD1DBF8080044
:10485000D4F8A81020F4E04008430027CBF8080063
:104860002E46A078C0071DD0D4F88800042800F296
:10487000A981DFE810F00B000500AB010B000B0075
:10488000D8F8000040F48030C8F800003D4657B921
:10489000DBF80400D4F8881020F007000843002754
:1048A000CBF804003546A07880071FD5D4F88C00DB
:1048B0004FEA3040042800F29381DFE810F00B004B
:1048C000050095010B000B00D8F8000040F4803083
:1048D000C8F80000B94657B9DBF80800D4F88C10C6
:1048E00020F4E02008430027CBF80800A946A07870
:1048F000400701D44D465DE05BF84C0C10F0040A13
:104900000BD15BF84C0C40F004004BF84C0C5BF8FE
:104910004C0C00F00400009000984FF60045CFF6D4
:10492000FF7558F8050040F0010048F80500FDF754
:10493000E5FD064658F80500C00707D1FDF7DEFD86
:10494000801B0228F6D9032703252AE03D4647BBF2
:10495000DBF8100010F4407018D0D4F8C010884272
:1049600011D0DBF81000DBF8101020F4407041F497
:104970008031CBF81010DBF8101021F48031CBF827
:104980001010CBF81000C00740F03881DBF81000A1
:10499000D4F8C01020F44070084300274D46CBF8EF
:1049A0001000BAF1000F05D15BF84C0C20F00400A8
:1049B0004BF84C0CA078C0061BD5D4F8A0004FEAE9
:1049C000B060032800F2E880DFE800F00702EA07A1
:1049D00004F1080005F0D0FB0746394657B9DBF86B
:1049E0000000D4F8A01020F0406008430027CBF866
:1049F000000029462068020320D5D4F8982032B15F
:104A0000B2F5005F18BFB2F5805F40F0D5803E463A
:104A100067B1C10415D481021ED4010230D4C10192
:104A200039D4810142D440014BD471E0DBF8043029
:104A3000002723F440531A43CBF804200E46C10448
:104A4000E9D5DBF80410D4F89C2021F4006111436F
:104A5000CBF804108102E0D5D4F8A410B1F5804F52
:104A600005D1D8F8002042F48032C8F80020DBF8E5
:104A7000042022F480421143CBF804100102CED569
:104A8000DBF80010D4F8B42021F440111143CBF826
:104A90000010C101C5D5DBF80010D4F8B82021F40E
:104AA00040311143CBF800108101BCD5DBF8081070
:104AB000D4F8BC2021F018011143CBF808104001B4
:104AC00026D5D4F8B000B0F5401F0FD0B0F5001FC8
:104AD00005D1D8F8000040F40030C8F800003D4689
:104AE00067B1E078000717D43EE000BF04F108008A
:104AF00005F042FB0746002F3D46F2D1DBF80400EB
:104B0000D4F8B01020F4401008430027CBF804007C
:104B10003546E078000727D5D4F8840058B1B0F1C5
:104B2000007F11D0B0F1807F30D1D8F8000040F480
:104B30000030C8F8000077B1E078C00618D43846D5
:104B400001B0BDE8F08F00BF04F1080005F014FBD0
:104B50000746002FF0D1DBF80000D4F8841020F0D5
:104B600040700843CBF800002F46E078C006E6D539
:104B7000DBF80800D4F8AC1020F400400843CBF870
:104B80000800384601B0BDE8F08F00BF0127E0788B
:104B9000C006D4D5ECE700BF012701212AE700BFFA
:104BA000D8F8000040F40030C8F80000002F394663
:104BB0007FF420AF13E700BF01270126C1047FF572
:104BC0002AAF3EE7012701256DE600BF04F12C0066
:104BD00005F04EFB0746002F3D467FF464AE57E6D6
:104BE00001274FF0010982E604F12C0005F040FB9B
:104BF0000746002FB9467FF47AAE6DE6FDF77EFCDE
:104C000006460327032500BFDBF8100080073FF5A9
:104C1000BDAEFDF773FC801B41F288318842F3D9A9
:104C2000BFE600002DE9F04F81B0002800F01C81A4
:104C300042F20008C4F202080446D8F800000D460B
:104C400000F00F0088420DD2D8F8000020F00F00CD
:104C50002843C8F80000D8F8000000F00F00A84270
:104C600040F00281206840F62049C106C4F2026982
:104C70000DD56169D9F8042002F07002914206D97D
:104C8000D9F8042022F070021143C9F8041001077A
:104C90000FD52169D9F80020702303EA121291423E
:104CA00007D9D9F8002022F4E06242EA0111C9F8DC
:104CB000001041070DD5E168D9F8002002F070021C
:104CC000914206D9D9F8002022F070021143C9F8A8
:104CD000001081070DD5A168D9F8002002F00F025D
:104CE000914206D9D9F8002022F00F021143C9F8E9
:104CF0000010C00774D1206881070DD5A168D9F8CC
:104D0000002002F00F02914206D2D9F8002022F0D2
:104D10000F021143C9F80010D8F8001001F00F017C
:104D2000A9420DD9D8F8001021F00F012943C8F885
:104D30000010D8F8001001F00F01A94240F0948053
:104D400041070DD5E168D9F8002002F070029142C8
:104D500006D2D9F8002022F070021143C9F80010E1
:104D600001070FD52169D9F80020702303EA121238
:104D7000914207D2D9F8002022F4E06242EA011100
:104D8000C9F80010C0060DD56069D9F8041001F00B
:104D90007001884206D2D9F8041021F0700108434E
:104DA000C9F8040000F05AF9D9F8001042F20812CC
:104DB00001F00F01C0F60102525C40F20801C2F29C
:104DC0000001096840F2140320FA02F2C2F2000363
:104DD00008461A6001B0BDE8F04FFDF717BC00BFF0
:104DE000606840F61C47C4F2026768B3022831D0FD
:104DF000032835D1D9F8740010F0040A0BD1D9F882
:104E0000740040F00400C9F87400D9F8740000F090
:104E1000040000900098FDF771FB4FF6F03BCFF6D1
:104E2000FF7B57F80B10490322D4BAF1000F05D1CC
:104E3000D9F8740020F00400C9F8740057F81C0C6D
:104E4000800111D5606822E057F81C0C40070BD593
:104E500000201CE057F81C0C800317D4012042E00E
:104E600057F81C1C490512D4012001B0BDE8F08F91
:104E7000064600BF57F80B004004D6D4FDF73EFBB2
:104E8000801B02284FF00300F4D92CE0022039687F
:104E900021F0030108433860FDF730FB61680646E6
:104EA000032941F2883A28D0022934D071B900BFD1
:104EB000386810F00C0F3FF41EAFFDF71FFB801B8E
:104EC00050454FF00300F3D90DE000BF386800F003
:104ED0000C0004283FF40FAFFDF710FB801B50457A
:104EE0004FF00300F2D901B0BDE8F08FFDF706FBEB
:104EF000801B50454FF00300F5D8386800F00C00D7
:104F00000C28F3D1F7E600BFFDF7F8FA801B5045F7
:104F10004FF00300E7D8386800F00C000828F3D100
:104F2000E9E600001F22026040F62042C4F202625D
:104F300052F8043C03F003034360136803F00F03CB
:104F40008360136803F07003C360D2F800C070235D
:104F500003EA1C130361526802F07002426142F2DC
:104F60000000C4F20200006800F00F000860704703
:104F700080B500F073F840F62041C4F20261096880
:104F800042F2081201F00F01C0F60102515CC84064
:104F900040F21401C2F20001086080BD80B500F04B
:104FA0005DF840F62041C4F202610A6842F208133B
:104FB00002F00F02C0F601039A5CD04040F21402E6
:104FC000C2F200021060096842F21812C1F3021125
:104FD000C0F60102515CC84080BD000080B500F001
:104FE0003DF840F62041C4F202610A6842F208131B
:104FF00002F00F02C0F601039A5CD04040F21402A6
:10500000C2F200021060096842F21812C1F30221D4
:10501000C0F60102515CC84080BD000080B500F0C0
:105020001DF840F62041C4F202610A6842F20813FA
:1050300002F00F02C0F601039A5CD04040F2140265
:10504000C2F200021060496842F21812C1F3021164
:10505000C0F60102515CC84080BD000080B540F63A
:105060002841C4F2026151F80C0C10F00C020868DF
:1050700016D00C2A04BF00F00300012810D051F80C
:105080000C0C9FED370A00F00C00042842F200409F
:10509000C0F2F4001ED0082A18BF00201AE000BF9A
:1050A00051F8200C000205D4D1F8CC00C0F3033035
:1050B00003E000BF51F8200C000F42F27033C0F63D
:1050C000010353F82000002A00EE100A18BF002048
:1050D000B8EE400A0C2A18BF80BDD1F800C00A689B
:1050E0009FED201AC2F303220B6802F1010E08693A
:1050F0005FEA8C7258BFB0EE401A00EE10EAC3F3BC
:105100000013B8EE400AC0F3CC0081EE000A00FBA9
:1051100003F09FED153A01EE100AC868B8EE411A87
:105120006FF35F2002EE100A21EE031AB8EE422A56
:10513000C86831EE021AB7EE002AC0F3066031EEFD
:10514000021A013020EE010A01EE100AB8EE411AEF
:1051500080EE010ABCEEC00A10EE100A80BD00BF4E
:10516000000000000024744B000000392DE9F043DA
:1051700081B0002800F0468440F694490446C4F209
:10518000026959F8780C59F86C1C227800F00C0769
:10519000D00601F0030823D42078C0077AD0082F66
:1051A00074D00C2F08BFB8F1030F6FD0606840F6C1
:1051B0000046B0F5803FC4F2026600F0EB82B0F525
:1051C000A81F00F0DF82B0F5A02F40F0F782306812
:1051D00040F480203060306820F48010D9E200BFB5
:1051E00017B30C2F08BFB8F1010F1DD040F60046D1
:1051F000C4F20266E1693068002900F0BB8140F02A
:1052000001003060FDF77AF9054600BF30684007BD
:1052100000F1C281FDF772F9401B02284FF0030034
:10522000F4D901B0BDE8F083E069002800F0EA831A
:1052300040F60045C4F20265666AA86800025ABFDB
:10524000D9F860000004A86800F07040864240F27F
:105250006581002F40F03483D9F80000400700F149
:105260001383D9F8000040F00400C9F80000D9F811
:10527000000000F0040000900098FEF7F3F9D9F860
:10528000001021F00401C9F80010FFE26068002856
:1052900000F0B883207880072FD5042F20D00C2F62
:1052A00008BFB8F1020F1BD040F60046C4F20266F8
:1052B000E1683068002900F0298240F48070306095
:1052C000FDF71CF9054600BF306840050CD4FDF71A
:1052D00015F9401B02284FF00300F5D9A1E700BFE4
:1052E000E068002800F08E8359F8840C216920F4CE
:1052F000F81040EA014049F8840C207840F6004755
:105300000007C4F2026775D42078400700F1CA8014
:105310002078800600F116812078000600F1508187
:105320002078400600F1B881A56B002D00F0A7841D
:1053300059F8780C00F00C000C2840F06F8259F8F6
:105340006C1C59F8600C012D00F05C83E26B01F0DD
:105350000303934240F05683226CC1F30323013AC6
:10536000934240F04F83626C01F47041914240F0EF
:105370004983A26C01466FF35F21013A914240F0EC
:105380004183E16CC0F3462201398A4240F03A83FE
:10539000216DC0F3064201398A4240F03383616DCA
:1053A000C0F306600139884240F02C8359F85C0C48
:1053B000E16DC0F3CC00884200F0618459F86C0CB8
:1053C00020F0100049F86C0CFDF798F80546FDF741
:1053D00095F8A842FBD0E06DC00049F85C0C59F884
:1053E0006C0C40F0100049F86C0C002001B0BDE8D6
:1053F000F08300BFD9F8000010F004080BD1D9F8F1
:10540000000040F00400C9F80000D9F8000000F0E6
:105410000400009000984FF62846CFF6FF76B85962
:10542000C00713D1B85940F00100B851FDF766F834
:10543000054600BFB859C00708D1FDF75FF8401B0B
:105440000228F7D9032001B0BDE8F0836069D9F8DC
:105450005C10002800F0CC80A06901F080529042DE
:1054600000F04A8301F04062B2F1006F00F0CA829E
:10547000490140F13A83D9F85C0020F0A050C9F806
:105480005C00FDF73BF80546D9F85C00000140F1EF
:105490002B83FDF733F8401B05284FF00300F3D9A9
:1054A000BFE600BFD9F8000010F004080BD1D9F80E
:1054B000000040F00400C9F80000D9F8000000F036
:1054C0000400009000984FF62846CFF6FF76B859B2
:1054D000C00713D1B85940F00100B851FDF70EF8DC
:1054E000054600BFB859C00708D1FDF707F8401BB3
:1054F00002284FF00300F5D993E600BFA568E8073E
:1055000040F08C80D9F85C0020F00100C9F85C0004
:10551000D9F85C0020F004008CE000BFA868B6F168
:10552000404F40F40000A860A86820F0704040EAB6
:105530000600A860C0F0CA80E868216A20F01F0059
:1055400008431CE2E16A3868002900F0098140F450
:1055500080503860FCF7D2FF054600BF38688004F1
:105560003FF5DAAEFCF7CAFF401B02284FF00300FC
:10557000F4D956E620F001003060FCF7BFFF054685
:10558000306840077FF508AEFCF7B8FF401B0228E3
:105590004FF00300F4D944E6B06840F40000B06076
:1055A000B168606A21F070410143B0F1404FB160D1
:1055B000C0F09C80F068216A20F01F0008435EE282
:1055C000216B3868002900F0178140F48040386072
:1055D000FCF794FF054600BF386800043FF5A0AE15
:1055E000FCF78CFF401B02284FF00300F4D918E6AB
:1055F00021F0A050C9F85C00FCF780FF054600BF11
:10560000D9F85C00000140F18F82FCF777FF401B66
:1056100005284FF00300F3D903E600BFD9F85C007A
:10562000690705D540F00400C9F85C00D9F85C00B2
:1056300040F00100C9F85C00FCF760FF002D054652
:1056400041F2883614D000BFD9F85C0080076FD4CF
:10565000FCF754FF401BB0424FF00300F4D9E0E5E3
:10566000FCF74CFF401BB0424FF003003FF6D9ADB2
:10567000D9F85C008007F3D4D9F85C00000600F18B
:105680000182B8F1000F7FF443AED9F8000020F09A
:105690000400C9F800003BE6606B002800F0E080E1
:1056A000B86840F40000B860B86820F07061D4E9D0
:1056B0000902B0F1404F41EA0201B960C0F04A81ED
:1056C000F868216A20F01F000843EAE2B6F1FF3FC4
:1056D00040F31A81E868B6F1804FC0F04B81216A2F
:1056E00020F4F84040EA812049E100BFB0F1FF3FDB
:1056F00040F39481F168B0F1804FC0F0BB81206A23
:1057000021F4F84141EA8020B9E100BF20F4807023
:105710003060FCF7F3FE0546306840057FF5EDADDF
:10572000FCF7ECFE401B02284FF00300F4D978E5AB
:10573000A168D9F85C00090600F1F88020F080002B
:1057400041F28836C9F85C00D9F85C00000598D5AC
:10575000FCF7D4FE401BB0424FF00300F4D960E5E3
:1057600020F480503860FCF7C9FE05463868800494
:105770007FF5D2ADFCF7C2FE401B02284FF00300BC
:10578000F4D94EE5306840F480203060306840F451
:1057900080103060306840F480303060FCF7AEFE3E
:1057A000054600BF306880033FF574ADFCF7A6FEE8
:1057B000401B64284FF00300F4D932E5316800281B
:1057C00021F480313160316821F480213160316809
:1057D00021F480113160E1D1FCF790FE054630687C
:1057E00080037FF557ADFCF789FE401B64284FF01E
:1057F0000300F4D915E500BF20F480403860FCF7C1
:105800007DFE0546386800047FF58AADFCF776FE1C
:10581000401B02284FF00300F4D902E5386820F05D
:1058200080703860FCF76AFE022D05460CD138689E
:10583000800140F18581FCF761FE401B02284FF09A
:105840000300F4D9EDE400BF3868800140F10E8216
:10585000FCF754FE401B02284FF00300F4D9E0E4AB
:10586000386820F010003860FCF748FE05463868BC
:1058700080067FF559ADFCF741FE401B02284FF032
:105880000300F4D9CDE400BFFDF7ECFE20F4803135
:10589000B1F5003F40D10021B6F1805F38BF012152
:1058A00042F20000C4F20200026822F00F020A4431
:1058B0000260006800F00F00884240F0A380666A32
:1058C000A868B6F1404F40F40000A860A86820F036
:1058D000704040EA0600A86006D3E868216A20F01C
:1058E0001F000843A7E000BFB6F1FF3F40F38E80E2
:1058F000E868B6F1804FC0F09980216A20F4F84042
:1059000040EA812097E000BFE868216A20F47870BF
:1059100040EA411033E000BF0021B1EB167F40F0B8
:10592000C780B0F5803F6DD10321B9E740F080001A
:1059300041F28836C9F85C00D9F85C0000053FF5F3
:10594000A0AEFCF7DBFD401BB0424FF00300F3D9E3
:1059500067E400BFB0F1FF3F40F39681F968B0F112
:10596000804FC0F09981206A21F4F84141EA8020FB
:1059700097E100BF216A20F4782040EAC130002F6F
:10598000E86059D1D9F80000400715D4D9F80000D3
:1059900040F00400C9F80000D9F8000000F004004D
:1059A00000900098FDF75EFED9F8001021F0040188
:1059B000C9F8001002E000BFFDF754FE20F480316A
:1059C000B1F5003F14D10021B6F1805F38BF01214D
:1059D00042F20000C4F20200026822F00F020A4400
:1059E0000260006800F00F0088420BD124E000BF85
:1059F0000021B1EB167F69D1B0F5803F02D10321C0
:105A0000E6E700BF012001B0BDE8F083E868216A45
:105A100020F4787040EA41100DE000BFF068216A80
:105A200020F4787040EA411029E000BF216A20F498
:105A3000782040EAC130E860FFF710FB59F8741C89
:105A400042F2081201F00F01C0F60102515C40F26F
:105A5000140220FA01F140F20800C2F200000068CE
:105A6000C2F200021160FCF7D1FD00287FF4D9AB2F
:105A7000FFF792BB206A21F4782141EAC030F06040
:105A8000FFF78ABBD9F85C0041F2883620F080002D
:105A9000C9F85C00D9F85C0000057FF5F2ADFCF7B1
:105AA0002DFD401BB0424FF00300F3D9FFF7B9BB07
:105AB000B6F1005F40F20C81B0FA80F0002140099D
:105AC000B6F1405F98BF01210140E9E6B6F1005F01
:105AD00040F20881B0FA80F000214009B6F1405F41
